:020000040800F2
:10000000A005002081410008194000081B4000089D
:100010001D4000081F4000082140000800000000AB
:100020000000000000000000000000002340000865
:100030002540000800000000274000082940000873
:100040009D410008A1410008A5410008A941000800
:10005000AD410008B1410008B5410008B9410008B0
:10006000BD410008C1410008C5410008C941000860
:10007000CD410008D1410008D5410008D941000810
:10008000DD410008E1410008E541000800000000F2
:10009000000000000000000000000000E94100082E
:1000A000ED410008F1410008F5410008F941000860
:1000B0003D4000084740000851400008FD4100084D
:1000C0000142000805420008094200080D420008EC
:1000D0001142000815420008194200080000000003
:1000E000314000081D4200082142000800000000C5
:1000F0000000000000000000000000002542000891
:1001000000000000294200082D420008314200088A
:1001100000000000000000000000000000000000DF
:1001200035420008394200083D42000841420008BB
:100130004542000800000000000000000000000030
:10014000000000000000000000000000494200081C
:100150004D4200085142000855420008594200082B
:100160005D4200086142000800000000000000003D
:10017000000000000000000000000000000000007F
:1001800000000000654200080000000000000000C0
:1001900069420008DFF8481D08607047DFF88C1DD1
:1001A0000860704710B50400A8212000C0B200F01C
:1001B000AAFF10BD10B50400B8212000C0B200F0A5
:1001C000A2FF10BD2DE9F04704000D005FF000080C
:1001D000DFF8100D0078001BB0F101095FF0000A94
:1001E0000020DFF8501D08705FFA8AFABAF1000F9C
:1001F00003D001F0F3FC0020824600200600DFF867
:10020000E40C0078864223D20020DFF82C1D8855AC
:100210000020DFF8241D3144C8700020DFF8181DCD
:10022000314488710020DFF8101D314448720020ED
:10023000DFF8801D3144C8700020DFF8781D31449C
:1002400088710020DFF86C1D31444872761CD6E7B7
:100250002800012808D0022811D0032804D018282B
:100260000DD019280BD015E055F02000DFF8C81C80
:100270005FFA89F901F809000320804614E055F07F
:100280002000DFF8B41C5FFA89F94944C8700220E5
:10029000804609E055F02000DFF89C1C5FFA89F9E0
:1002A000494488710120804601F096FC0120824675
:1002B000DFF8800C0078002892D15FFA88F8D8F136
:1002C00003000600042E0FD2DFF8E80C032101FB27
:1002D00006F10144DFF8600C032202FB06F2104431
:1002E00001F04AFC761CEDE7DFF8C80C5FFA89F9EB
:1002F0004844C078DFF8BC1C5FFA89F94944897921
:10030000090251EA0040DFF8AC1C5FFA89F9494460
:10031000497A0843070001F061FC3800BDE8F08726
:100320002DE9F0410400DFF8BC0B0078001B471EEC
:100330005FF000080020DFF8FC1B08705FFA88F807
:10034000B8F1000F03D001F049FC002080460020E6
:100350000500DFF8900B0078854219D20020DFF805
:10036000D81B48550020DFF8D01B2944C870002056
:10037000DFF8C41B294488710020DFF8381C2944A9
:10038000C8700020DFF82C1C294488716D1CE0E740
:10039000D020DFF8A41BFFB2C85501F01DFC0120DE
:1003A0008046DFF8900B00780028C3D100200500BC
:1003B000032D0FD2DFF8FC0B032101FB05F10144F3
:1003C000DFF8740B032202FB05F2104401F0D4FBAA
:1003D0006D1CEDE7DFF8DC0BFFB23844C078DFF8C6
:1003E000D41BFFB23944897951EA0020060001F09C
:1003F000F5FB300080B2BDE8F08110B504000021AB
:100400002000C0B200F07FFE10BD2DE9F0470400CF
:100410000D0016005FF00008DFF8C80A0078001B26
:10042000B0F101095FF0000A0020DFF8081B087036
:100430005FFA8AFABAF1000F03D001F0CFFB002077
:10044000824600200700DFF89C0A0078874214D219
:100450000020DFF8E41AC8550020DFF8DC1A394420
:10046000C8700020DFF8D01A394488710020DFF806
:10047000C81A394448727F1CE5E72800012806D0D5
:1004800002281BD0032802D0182817D026E0DFF856
:10049000A80A5FFA89F900F80950300CDFF8981AB9
:1004A0005FFA89F94944C870300ADFF88C1A5FFA9C
:1004B00089F9494488710320804617E0DFF8780AFB
:1004C0005FFA89F94844C570300ADFF86C1A5FFAA0
:1004D00089F9494488710220804607E0DFF8580A0C
:1004E0005FFA89F94844857101208046DFF8480A9F
:1004F0005FFA89F94844467201F06EFB012082469A
:10050000DFF8300A007800288ED15FFA88F8D8F139
:1005100003000700042F0FD2DFF8980A032101FB24
:1005200007F10144DFF8100A032202FB07F210442E
:1005300001F022FB7F1CEDE701F050FBBDE8F087E6
:1005400010B50400DFF84C0D0088C0B201F048FB84
:1005500001F0BEFC002803D04FF4004000F0B0FDD5
:10056000DFF8300D0088C0B201F028FCDFF8240D60
:100570000088C0B201F07AFC012001F027FB002CBA
:1005800006D1DFF8100D0088C0B200F087FE06E04B
:100590002100DFF8000D0088C0B200F0F2FDDFF8A6
:1005A000F40C0088C0B2FFF7FDFDDFF8E80C00880E
:1005B000C0B2FFF7B5FEDFF8DC0C0088401CDFF8A6
:1005C000D41C088010BDDFF8D01CC0B228225043D4
:1005D0000844008B704738B52DED028B04000D00E8
:1005E00029002000C0B2FFF7EDFD08EE100A280038
:1005F00001280AD0032808D0092811D00F281FD0BD
:1006000010281DD0132813D022E018EE100A00F095
:100610004BFD00EE100AB8EEC00AF0EE408A1BE077
:1006200018EE100AC0B201F0C3FCF0EE408A13E0ED
:1006300018EE100AC0B201F0C9FCF0EE408A0BE0DF
:1006400018EE100AC0B201F0CFFCF0EE408A03E0D1
:10065000B8EE480AF0EE408AB0EE680ABDEC028BB4
:1006600031BDDFF8341CC0B2282250430844008C4E
:100670007047DFF8241CC0B2282250430844408B46
:100680007047DFF8141CC0B228225043084490F889
:1006900024007047DFF8001CC0B2282250430844F1
:1006A00090F8230070475FF485307047DFF8000D45
:1006B000704710B5040003212000C0B2FFF782FD8F
:1006C00000F0F2FC10BDDFF8D01BC0B2282250436E
:1006D0000844808B7047DFF8C01BC0B2282250430B
:1006E0000844C08B7047DFF8FC070078704710B5EE
:1006F000040001212000C0B2FFF764FD00F0D4FC2B
:1007000010BD70B5040016212000C0B2FFF75AFDDD
:1007100010F0070050F008000600F6B2082E07D0CF
:1007200015D30A2E0AD006D30C2E0DD009D30EE015
:10073000002005000DE0012005000AE00220050070
:1007400007E00320050004E00420050001E0FE208E
:1007500005002800C0B270BDDFF83C1BC0B22822E3
:100760005043084490F82500704710B5040000215C
:100770002000C0B200F011F810BD38B5040003210C
:100780002000C0B2FFF71EFD00F08EFC050029001E
:100790002000C0B200F001F831BDF8B504000D0032
:1007A000DFF8F40AE4B2282101FB04F1084490F8D0
:1007B0002400082803D02000C0B200F054F8012122
:1007C0002000C0B2FFF7FEFC00F06EFCDFF8C81A94
:1007D000E4B2282202FB04F211444860DFF8B80AB0
:1007E000E4B2282101FB04F108444068281A0700FC
:1007F000002F0AD4DFF8A00AE4B2282101FB04F19B
:1008000008444761012006000AE07842DFF8881AB0
:10081000E4B2282202FB04F21144486100200600E1
:10082000002F1FD00120DFF8701AE4B2282202FB4B
:1008300004F2114481F822003100C9B22000C0B294
:1008400000F06DFADFF8500AE4B2282101FB04F150
:10085000084441692000C0B200F0AEFB2000C0B2E5
:1008600000F0F4FEF1BD10B50400DFF82C0AE4B28C
:10087000282101FB04F1084490F8250000282BD121
:100880002000C0B201F0D9FA0820DFF80C1AE4B257
:10089000282202FB04F2114481F824000320DFF82F
:1008A000F819E4B2282202FB04F2114481F8220074
:1008B0007FF00040DFF8E019E4B2282202FB04F2E6
:1008C000114448610020DFF8D019E4B2282202FB6D
:1008D00004F21144088403E02000C0B200F001F8E3
:1008E00010BD10B504002000C0B201F0A6FA20002F
:1008F000C0B2FFF757FC0820DFF89C19E4B22822A9
:1009000002FB04F2114481F824000320DFF8881967
:10091000E4B2282202FB04F2114481F822007FF0A5
:100920000040DFF87419E4B2282202FB04F21144FB
:1009300048610020DFF86019E4B2282202FB04F2CB
:100940001144088410BD70B504000D001600DFF8D6
:100950004809E4B2282101FB04F1084490F824007E
:10096000082803D02000C0B2FFF77DFF002E2FD053
:10097000DFF82409E4B2282101FB04F108444661B0
:100980000120DFF81419E4B2282202FB04F211441A
:1009900081F8220001212000C0B2FFF713FC00F013
:1009A00083FBDFF8F418E4B2282202FB04F21144BE
:1009B00048602900C9B22000C0B200F0B0F931008F
:1009C0002000C0B200F0F8FA2000C0B200F03EFEF5
:1009D00070BDDFF8C0080088704710B50400192109
:1009E0002000C0B2FFF7EEFB80B210BD10B50400CE
:1009F0002000C0B201F03AFA10BD10B5040020008A
:100A0000C0B201F03CFA10BD10B500200400200077
:100A1000DFF8D0140978C0B2884213D22000C0B2E7
:100A2000FFF75FFF2000C0B2FFF7E7FF012001F0F2
:100A3000CDF82000C0B201F019FA012001F0C6F88B
:100A4000641CE4E710BD38B504000D00DFF8480869
:100A5000E4B2282101FB04F1084490F8240008289E
:100A600003D02000C0B2FFF7FEFE2900C9B220006B
:100A7000C0B200F054F90020DFF81C18E4B22822BC
:100A800002FB04F2114481F822002000C0B200F001
:100A9000DDFD31BDF8B504000D00EDB2002D05D02F
:100AA000022D09D005D3032D09D00BE00820070043
:100AB0000AE00920070007E00A20070004E00B20F5
:100AC000070001E00C2007002000C0B2FFF709FF7B
:100AD00016212000C0B2FFF775FB10F0F8000600E9
:100AE000F6B2FFB257EA060216212000C0B2FFF7A5
:100AF0008CFC002201212000C0B2FFF786FC0120FF
:100B0000F2BD10B40200002089B200291FD0DFF826
:100B10008837D2B2282404FB02F4234493F824300B
:100B2000082B0AD0DFF87037D2B2282404FB02F475
:100B3000234493F82230002B09D1DFF85C37D2B27E
:100B4000282404FB02F42344198301231800C0B2B3
:100B500010BC70472DE9F0412DED028B04000D0013
:100B6000B0EE408A0127B5EE408AF1EE10FA06D5C4
:100B7000012D04D0032D02D000200700A0E02800A2
:100B8000012838D002280AD0032834D009285CD0A4
:100B90000F287AD0102878D0132866D085E0B5EEDB
:100BA000408AF1EE10FA1ED09FEDC70AB4EE408ADB
:100BB000F1EE10FA14DA5FF0010816210020FFF7B9
:100BC00001FB10F00700D0F1070018FA00F000EE6A
:100BD000100AB8EEC00AB4EE408AF1EE10FA02D55F
:100BE0000020070006E0BCEEC80A10EE100AC0059F
:100BF000C00D06005BE09FEDCB0AB4EE408AF1EE3B
:100C000010FA1FDB9FEDC80AB4EE408AF1EE10FA2D
:100C100018D5B5EE408AF1EE10FA07DBBCEEC80A33
:100C200010EE100A8002800A06000DE0B1EE480ABC
:100C3000BCEEC00A10EE100A8002800AD0F58000D7
:100C4000060001E00020070031E09FEDB90AB4EE94
:100C5000408AF1EE10FA02DB0020070004E0B0EE5B
:100C6000480A01F0C9F9060021E09FEDD00AB4EE70
:100C7000408AF1EE10FA02DB0020070004E0B0EE3B
:100C8000480A01F0CDF9060011E09FEDC90AB4EE63
:100C9000408AF1EE10FA02DB0020070004E0B0EE1B
:100CA000480A01F0D1F9060001E000200700FFB278
:100CB000002F05D0320029002000C0B2FFF7A5FBAD
:100CC0003800C0B2BDEC028BBDE8F08110B4020068
:100CD000002089B200291FD0DFF8BC35D2B2282409
:100CE00004FB02F4234493F82430082B0AD0DFF8E5
:100CF000A835D2B2282404FB02F4234493F822300E
:100D0000002B09D1DFF89035D2B2282404FB02F47D
:100D10002344598301231800C0B210BC704738B572
:100D200004000D00DFF87005E4B2282101FB04F196
:100D3000084490F8240008280ED1DFF85C05E4B2DE
:100D4000282101FB04F1084480F823502900C9B28E
:100D50002000C0B201F09CF831BDF8B504000D00D0
:100D600001212000C0B2FFF72DFA00F09DF9461BCB
:100D7000002E03D4B002800A070005E07042800212
:100D8000800AD0F5800007003A0001212000C0B29F
:100D9000FFF73BFBF1BD0100C9B2042908DA0020CE
:100DA000DFF8F0241080DFF8000E0170012000E071
:100DB0000020704770B504000D00002D03D4A80278
:100DC000800A060005E068428002800AD0F58000B3
:100DD0000600320003212000C0B2FFF716FB70BDF1
:100DE00030B40200002089B2022930DB89B242F21D
:100DF000117399422BDA0B00DFF8B04DD2B22825DF
:100E000005FB02F52C44E48B9BB2A3421FD3DFF811
:100E10009C3DD2B2282404FB02F4234493F82430EE
:100E2000082B0AD0DFF8843DD2B2282404FB02F458
:100E3000234493F82230002B09D1DFF8703DD2B261
:100E4000282404FB02F42344998301231800C0B230
:100E500030BC704710B40200002089B2022930DB98
:100E600089B242F2117399422BDADFF8403DD2B2D7
:100E7000282404FB02F423449B8B0C00A4B2A3425D
:100E80001FD3DFF8283DD2B2282404FB02F4234408
:100E900093F82430082B0AD0DFF8103DD2B2282472
:100EA00004FB02F4234493F82230002B09D1DFF82D
:100EB000FC3CD2B2282404FB02F42344D98301234E
:100EC0001800C0B210BC70470180FF43DFF8DC2C73
:100ED000C0B2282303FB00F31A4482F825107047A0
:100EE000400700205207002010B401000020DFF866
:100EF000BC2CC9B2282303FB01F31A4492F8242026
:100F0000082A0BD00222DFF8A43CC9B2282404FB33
:100F100001F4234483F8222001221000C0B210BC47
:100F200070470000000000CAF9FFFF493C0700209D
:100F300001007A45530700202407002010B5040063
:100F40002000C0B2FFF79DFB0828F9D110BD38B5CD
:100F500004000D00ADB2022D01DA02200500ADB291
:100F600042F21170854202DB42F210700500CA485D
:100F7000E4B2282101FB04F108440584E4B2002C0A
:100F800003D0022C0BD005D30EE0280080B200F075
:100F9000C4FE09E0280080B200F0DAFE04E0280078
:100FA00080B200F0F0FEFFE731BD00000180BB45DC
:100FB0000100804230070020F0B4B74CC0B22825B1
:100FC00005FB00F52C44E48BB34DC0B2282606FB8C
:100FD00000F63544AD8BA4B22D1B2A00AE4DC0B235
:100FE000282606FB00F63544AD8BA4B214FA85F52D
:100FF0006A431300A84DC0B2282606FB00F635440C
:101000002D8BB2FBF5F25208A34DC0B2282606FB89
:1010100000F635446D8BB3FBF5F35B089D18A942D0
:1010200030D29D4DC0B2282606FB00F635446D8BAC
:10103000994EC0B2282707FB00F73E44368B01FBD0
:1010400005F715EB060CB7FBFCF73B00022B06D3AC
:101050005F1E3A00002A04D101273A0001E0002770
:101060003A008D4FC0B25FF0280C0CFB00FC6744C7
:10107000BA60894FC0B25FF0280C0CFB00FC6744DB
:101080003B610FE0844DC0B2282606FB00F63544D4
:10109000AA60CD1A6D1E804EC0B2282707FB00F74C
:1010A0003E443561F0BC704701008A0206D5C94351
:1010B000491C8A02920A1000404200E00800704772
:1010C00010B50400DFF8E80A0068002806D0200008
:1010D00080B2DFF8DC1A0968884700E0FEE710BD3F
:1010E00080B5DFF8D00A006800280BD00120DFF8B7
:1010F000C81A0870DFF8BC0A006880470020DFF8D3
:10110000B81A087001BD2DE9F04104000D00DFF8A8
:10111000980A0078001B471E5FF000080020DFF8E7
:101120009C1A08705FFA88F8B8F1000F03D000F03D
:1011300055FD0020804600200600DFF86C0A00788C
:10114000864206D20020DFF8781A31444872761CB5
:10115000F3E7DFF86C0AFFB23844457200F03CFD5B
:1011600001208046DFF8540A00780028D6D1DFF845
:10117000541ADFF8540A00F0FFFC00F02FFDBDE820
:10118000F08138B504000D002888DFF8201AE4B299
:10119000282202FB04F2114408836888DFF80C1A45
:1011A000E4B2282202FB04F211444883A888DFF845
:1011B000FC19E4B2282202FB04F211448883E88877
:1011C000DFF8E819E4B2282202FB04F21144C883D4
:1011D0000020DFF8D819E4B2282202FB04F288507C
:1011E0000020DFF8C819E4B2282202FB04F21144FF
:1011F00048600020DFF8B419E4B2282202FB04F2B0
:10120000114488600020DFF8A419E4B2282202FB10
:1012100004F21144C8600020DFF89019E4B22822DB
:1012200002FB04F2114408610020DFF88019E4B2E7
:10123000282202FB04F2114448610020DFF86C19F7
:10124000E4B2282202FB04F2114408840320DFF8F0
:101250005C19E4B2282202FB04F2114481F8220056
:101260000120DFF84819E4B2282202FB04F21144FD
:1012700081F823000820DFF83419E4B2282202FBA9
:1012800004F2114481F8240029002000C0B200F0CB
:1012900091F831BD4C070020A005002010B50400D6
:1012A000A020DFF80819E4B2282202FB04F211445E
:1012B0000883A020DFF8F418E4B2282202FB04F22D
:1012C000114448834FF4C860DFF8E018E4B22822E4
:1012D00002FB04F2114488834FF44870DFF8CC1805
:1012E000E4B2282202FB04F21144C8830020DFF894
:1012F000BC18E4B2282202FB04F288500020DFF878
:10130000AC18E4B2282202FB04F211444860002029
:10131000DFF89818E4B2282202FB04F21144886036
:101320000020DFF88818E4B2282202FB04F21144FE
:10133000C8600020DFF87418E4B2282202FB04F22F
:10134000114408610020DFF86418E4B2282202FB8F
:1013500004F2114448610020DFF85018E4B228225A
:1013600002FB04F2114408840320DFF84018E4B2C1
:10137000282202FB04F2114481F822000120DFF848
:101380002C18E4B2282202FB04F2114481F8230055
:101390000820DFF81818E4B2282202FB04F21144F6
:1013A00081F824002000C0B200F062F810BD0000F7
:1013B0000000002038B504000D00002201212000AB
:1013C000C0B2FFF722F8002202212000C0B2FFF7CE
:1013D0001CF8002203212000C0B2FFF716F895ED9B
:1013E000020A09212000C0B2FFF7B4FB687D297D05
:1013F00051EA00020E212000C0B2FFF706F895ED79
:10140000060A0F212000C0B2FFF7A4FB95ED070AE2
:1014100010212000C0B2FFF79DFB95ED030A1321B8
:101420002000C0B2FFF796FBA87CE97C51EA0002DD
:1014300016212000C0B2FEF7E8FFAA6A172120009B
:10144000C0B2FEF7E2FF95F82400697C0843297CCE
:101450000843B5F9221089B20843B5F9201089B2C2
:1014600051EA000218212000C0B2FEF7CEFF31BDC4
:1014700010B50400002201212000C0B2FEF7C5FF14
:10148000002202212000C0B2FEF7BFFF002203218C
:101490002000C0B2FEF7B9FFE4B2002C04D0022C49
:1014A00000F08E8046D3D0E09FED8A0A00F0A4FDC4
:1014B000C0B2020009212000C0B2FEF7A6FF35220B
:1014C0000E212000C0B2FEF7A0FFB0EE080A00F027
:1014D000BBFD0200D2B20F212000C0B2FEF795FF83
:1014E000B3EE050A00F0B0FDC0B2020010212000EA
:1014F000C0B2FEF78AFF012213212000C0B2FEF71E
:1015000084FF8C2216212000C0B2FEF77EFFCF227E
:1015100017212000C0B2FEF778FF4FF43252182195
:101520002000C0B2FEF771FF00212000C0B2FFF71B
:10153000CDFC8AE09FED670A00F05EFDC0B20200BC
:1015400009212000C0B2FEF760FF35220E212000E5
:10155000C0B2FEF75AFFB0EE080A00F075FDC0B247
:1015600002000F212000C0B2FEF74FFFB3EE050AC4
:1015700000F06AFDC0B2020010212000C0B2FEF7E8
:1015800044FF012213212000C0B2FEF73EFF8C224F
:1015900016212000C0B2FEF738FFCF22172120000D
:1015A000C0B2FEF732FF4FF4325218212000C0B211
:1015B000FEF72BFF00212000C0B2FFF787FC44E0BC
:1015C0009FED440A00F018FDC0B20200092120007E
:1015D000C0B2FEF71AFF35220E212000C0B2FEF77E
:1015E00014FFB0EE080A00F02FFDC0B202000F2178
:1015F0002000C0B2FEF709FFB3EE050A00F024FD9B
:10160000C0B2020010212000C0B2FEF7FEFE01228F
:1016100013212000C0B2FEF7F8FE8C221621200014
:10162000C0B2FEF7F2FECF2217212000C0B2FEF7B3
:10163000ECFE4FF4325218212000C0B2FEF7E5FE56
:1016400000212000C0B2FFF741FC10BD10B504001E
:101650002000C0B2FEF7AEFDDFF85005E4B228214D
:1016600001FB04F10844806800280AD00020DFF85C
:101670003C15E4B2282202FB04F2114481F8240054
:1016800009E00220DFF82415E4B2282202FB04F26C
:10169000114481F824000020DFF81015E4B228225C
:1016A00002FB04F288500020DFF80015E4B2282283
:1016B00002FB04F21144C860DFF8F004E4B2282110
:1016C00001FB04F10844C18B2000C0B2FFF73FFCCE
:1016D00010BD000000007A432DE9F843040001200A
:1016E000DFF8D4140870DFF8C404E4B2282101FB49
:1016F00004F10844C068401CDFF8B014E4B22822AA
:1017000002FB04F21144C860DFF8A004E4B228210F
:1017100001FB04F1084490F82400002806D00228B8
:1017200000F05681032800F0DC8020E2DFF87C0422
:10173000E4B2282101FB04F10844C568DFF86C0419
:10174000E4B2282101FB04F108448668DFF85C0458
:10175000E4B2282101FB04F10844078CDFF84C04B3
:10176000E4B2282101FB04F10844008B5FEA004841
:10177000DFF83804E4B2282101FB04F1084490F8B2
:101780002200022814D0DFF82404E4B2282101FB4F
:1017900004F1084490F8220000281CD0DFF80C0463
:1017A000E4B2282101FB04F108440069854212D10A
:1017B0000220DFF8F813E4B2282202FB04F21144FD
:1017C00081F824000020DFF8E413E4B2282202FBB1
:1017D00004F2885084E03800DFF8D013E4B2282205
:1017E00002FB04F21144898B80B288420CD2DFF8EC
:1017F000BC03E4B2282101FB04F1084490F8220064
:1018000000280CD0B5420AD10320DFF8A013E4B2BF
:10181000282202FB04F2114481F8240060E05FF00A
:101820000009BFB2002F01D101200700DFF87C03BF
:10183000E4B2282101FB04F14058BFB2B8FBF7F134
:101840000818DFF86813E4B2282202FB04F288507B
:10185000DFF85803E4B2282101FB04F14058B0F549
:10186000803F13D3D148E4B2282101FB04F1405852
:1018700000F17F4010F57F00CC49E4B2282202FB42
:1018800004F288507F1C01208146E1E75FFA89F964
:10189000B9F1000F24D0C548E4B2282101FB04F1BE
:1018A0000844808B390089B2884207D2BF48E4B22D
:1018B000282101FB04F10844808B0700BB48E4B2F7
:1018C000282101FB04F108440784B848E4B2282128
:1018D00001FB04F10844018C2000C0B2FFF737FB84
:1018E00045E1B248E4B2282101FB04F10844808BB1
:1018F000AE49E4B2282202FB04F21144C968AB4AA3
:10190000E4B2282303FB04F31A4492F82220022AAB
:1019100027D0A64AE4B2282303FB04F31A4492F822
:101920002220002A08D0A14AE4B2282303FB04F3B2
:101930001A441269914214D29C4AE4B2282303FB50
:1019400004F31A4492F82220002A1BD10200974B7C
:10195000E4B2282505FB04F52B441B8C92B29A4275
:1019600010D20222914BE4B2282505FB04F52B444A
:1019700083F8242000228D4BE4B2282505FB04F5D2
:101980005A5124E0894AE4B2282303FB04F31A44A1
:1019900092F82220002A1AD1844AE4B2282303FBB9
:1019A00004F31A44128C03009BB29A420FD2002215
:1019B0007E4BE4B2282505FB04F52B4483F8242054
:1019C00000227A4BE4B2282505FB04F55A51CEE0FB
:1019D0007648E4B2282101FB04F10844C568734845
:1019E000E4B2282101FB04F10844068C6F48E4B2FC
:1019F000282101FB04F10844408B07046B48E4B242
:101A0000282101FB04F1084490F8220002280AD1A1
:101A10006648E4B2282101FB04F10844C08B310080
:101A200089B2884212D26148E4B2282101FB04F154
:101A3000084490F8220000280DD05C48E4B2282128
:101A400001FB04F108444069854204D32000C0B280
:101A5000FEF709FF8AE05548E4B2282101FB04F1B2
:101A6000084490F82200002814D15048E4B22821FC
:101A700001FB04F10844808B310089B2884209D30C
:101A800003204A49E4B2282202FB04F2114481F8FF
:101A900024006BE04548E4B2282101FB04F108442E
:101AA000C08B310089B2884260D25FF00008B6B2C4
:101AB000002E01D1012006003C48E4B2282101FBA0
:101AC00004F14058B6B2B7FBF6F108183749E4B252
:101AD000282202FB04F288503448E4B2282101FB9A
:101AE00004F14058B0F5803F16D33048E4B22821C5
:101AF00001FB04F1405800F17F4010F57F002B49B5
:101B0000E4B2282202FB04F28850B6B2022E00DBB7
:101B1000761E01208046DFE75FFA88F8B8F1000FF3
:101B200024D030002149E4B2282202FB04F21144FF
:101B3000C98B80B2884207D21C48E4B2282101FB3D
:101B400004F10844C08B06001848E4B2282101FBC8
:101B500004F1084406841548E4B2282101FB04F18D
:101B60000844018C2000C0B2FFF7F1F9FFE7002024
:101B700011490870BDE8F18338B504000D000A482A
:101B800002782900200000F0D1F9002803D048F2A3
:101B90000100FFF795FA08480078002802D00120DC
:101BA0000649087031BD000052070020A005002042
:101BB000400700203C070020540700205307002066
:101BC00024070020390700202D07002010B504004D
:101BD000200000F049FA10BD72B6704762B6704737
:101BE00010B586B00400E4B2002C66D1002000904D
:101BF000DFF89003006850F00400DFF888130860F5
:101C0000DFF88003006810F00400009000980020C6
:101C10000090DFF87003006850F00100DFF86413F3
:101C20000860DFF86003006810F001000090009881
:101C300000200090DFF84C03006850F00200D1490A
:101C40000860D048006810F00200009000984FF43F
:101C500080600190CC480290012003900120049004
:101C600001A9CA4800F014FA00220521282000F03A
:101C7000A8FB282000F0B8FB402001900120029032
:101C8000002003900120049001A9C14800F000FA4F
:101C900001224021BE4800F0EAFA4FF400700190A2
:101CA00001200290002003900120049001A9B74870
:101CB00000F0EEF9002000F0E2F8E4B2002C03D0CE
:101CC000022C1CD00ED326E04FF48070019001202E
:101CD0000290002003900120049001A9AB4800F07D
:101CE000D7F918E0202001900120029000200390F5
:101CF0000120049001A9A64800F0CAF90BE01020C9
:101D0000019001200290002003900120049001A97D
:101D10009F4800F0BDF906B010BD70B5040000F09A
:101D200031FC0500A4B24FF4806000FB04F0B5FB69
:101D3000F0F0461E97480068C6629648C660700874
:101D40009449096888630421924800F0BDFC70BD85
:101D500070B5040000F016FC0500A4B24FF48060DA
:101D600000FB04F0B5FBF0F0461E8B480068C6622D
:101D70008948C660700888490968886304218648D4
:101D800000F0A2FC70BD70B5040000F0FBFB050084
:101D9000A4B24FF4006000FB04F0B5FBF0F0461E67
:101DA0007E480068C6627D48C66070087B49096845
:101DB000C8630821794800F087FC70BD70B58AB00F
:101DC0000400E4B22000012808D002280ED0714897
:101DD000050073482860042006000DE06E480500E9
:101DE0005FF0804028600420060005E06B48050095
:101DF0006C4828600820060040F2FF306860002030
:101E0000E86000202861280000F00CFC60200290AF
:101E1000002003900020049000200690320002A9C8
:101E2000280000F050FD002000900020019069463D
:101E3000280000F0F5FE0AB070BD10B50400E4B251
:101E4000002C03D0022C0BD005D30EE00421514806
:101E500000F004FC09E004214F4800F0FFFB04E01F
:101E600008214E4800F0FAFBFFE710BD10B5040052
:101E700001224FF40071454800F0F9F910BD10B58A
:101E8000040000224FF40071404800F0F0F910BD4A
:101E900038B504000D00E4B2002C11D0022C01D0A2
:101EA00007D314E02A00D2B21021394800F0DFF93C
:101EB0000DE02A00D2B22021354800F0D8F906E022
:101EC0002A00D2B24FF48071304800F0D0F931BD11
:101ED00010B535483549086020203449C8610020D4
:101EE0003249886001203149486102202F49086148
:101EF00000202E49886207202C49C86200202B4907
:101F0000C8600020294908624FF4007027498861A1
:101F10000020264948624FF48270244948602348D3
:101F200000F0ACFE04002000C0B210BD2DE9F0416D
:101F300082B004000D00160000224021144800F079
:101F400096F900208046F6B2B04511D24FF4805089
:101F5000009001232A002100144800F0DEFE070053
:101F6000FFB2002F04D1641C6D1C18F10108EAE7D0
:101F700001224021064800F07AF93800C0B2BDE8DD
:101F8000F6810000303802400000211000000240BD
:101F90000004024070060020AC060020E806002085
:101FA00000040040000800400030014018060020F6
:101FB000C0B2401C00EE100AB8EEC00ADFED020A03
:101FC00020EE200A704700BF0000FA41C0B2401C5A
:101FD00000EE100AB8EEC00ADFED020A20EE200A79
:101FE000704700BF0080BB43C0B2401C00EE100A27
:101FF000BAEEEF0A70470000DFED070A30EE200A64
:10200000DFED060AB6EE001A00EE201ABDEEC10A98
:1020100010EE100AC0B270470000FAC16F12033D03
:10202000DFED070A30EE200ADFED060AB6EE001AF1
:1020300000EE201ABDEEC10A10EE100AC0B27047C1
:102040000080BBC30FB82E3BFEEE000A30EE200A24
:10205000F0EE000AB6EE001A00EE201ABDEEC10A3C
:1020600010EE100AC0B2704770B5040001F032F8EB
:102070000500260016F1010F02D00448007836183A
:1020800001F028F8401BB042FAD370BD980100203F
:10209000F8B400230024002500263200102A80F026
:1020A000D8800126964033000E681E4034009C42C2
:1020B00040F0CD804E68022E02D04E68122E16D10E
:1020C000D60800EB8606366A35000F2612F00707A1
:1020D000FFB2BF00BE40B5430E6912F00707FFB262
:1020E000BF00BE403543D60800EB86063562066861
:1020F000350003261700FFB27F00BE40B5430E79BE
:1021000016F003061700FFB27F00BE40354305609E
:102110004E68012E08D04E68022E05D04E68112E52
:1021200002D04E68122E19D186683500032617009A
:10213000FFB27F00BE40B543CE681700FFB27F00FC
:10214000BE40354385604668350001269640B5435C
:102150004E68C6F30016964035434560C6683500A4
:1021600003261700FFB27F00BE40B5438E681700FC
:10217000FFB27F00BE403543C5604E68F60066D5AD
:1021800000260096494E366856F48046474F3E601A
:10219000464E366816F480460096009E444E9708D8
:1021A00056F8276035000F2612F00307FFB2BF0074
:1021B000BE40B5433F4EB04201D1002614E03E4E32
:1021C000B04201D101260FE03C4EB04201D10226BF
:1021D0000AE03B4EB04201D1032605E0394EB04241
:1021E00001D1042600E00726F6B212F00307FFB281
:1021F000BF00BE4035432E4E970846F82750324E5A
:1022000036683500A5434E68F60300D525432E4EAB
:1022100035602E4E36683500A5434E68B60300D5AE
:1022200025432A4E35602A4E36683500A5434E6850
:10223000F60200D52543264E3560264E3668350019
:10224000A5434E68B60200D52543224E3560521C88
:1022500024E7F1BC70470200136989B20B4202D037
:102260000123180001E000231800C0B27047D2B269
:10227000002A02D089B2816102E089B20B04836135
:102280007047426989B24A404261704710B5040004
:1022900011480068A4B2204206D0A4B20E480460DF
:1022A000200080B201F048F810BD00004438024020
:1022B00008380140000002400004024000080240CB
:1022C000000C024000100240003C0140043C014070
:1022D000083C01400C3C0140143C014010F0070256
:1022E000DFF820311B6819004FF6FF031940DFF8B3
:1022F000183153EA02231943424B19607047414891
:102300000068C0F30220704740B2002808D40121C1
:1023100010F01F0291403D4A40B2430942F8231099
:10232000704710B440B2002804D40A01384B40B2C0
:102330001A5407E00A01374B40B210F00F0423444F
:1023400003F8042C10BC704770B4030013F00704AA
:10235000D4F10706052E01D3042001E0D4F10700D3
:10236000261D072E01D2002500E0E51E012616FAE3
:1023700000F0401E0840A8400121A940491E11401C
:10238000084370BC704710B50400601EB0F1807F38
:1023900001D301200EE0601E1F4908600F215FF08D
:1023A000FF30FFF7BEFF00201C49086007201C49D2
:1023B0000860002010BD10B504002000FFF78EFF5C
:1023C00010BDF8B504000D0016000027FFF797FFB9
:1023D0000700320029003800FFF7B6FF0100200097
:1023E00040B2FFF79EFFF1BD10B50400200040B2DF
:1023F000FFF78AFF10BD10B504002000FFF7C3FFF0
:1024000010BD00000CED00E00000FA0500E100E066
:1024100000E400E018ED00E014E000E018E000E067
:1024200010E000E070B504000D00002C01D1012087
:102430009CE04F48006810F00F00A84209D24C48B9
:1024400005704B48006810F00F00A84201D0012031
:102450008CE02078800719D52078400705D54548BD
:10246000006850F4E050434908602078000705D523
:102470004048006850F460403E4908603D480068AC
:1024800030F0F000A16808433A4908602078C0079E
:1024900036D56068012805D137480068800313D419
:1024A000012063E06068022802D06068032805D13B
:1024B00031480068800107D4012057E02E480068A9
:1024C000800701D4012051E02A480068800880007C
:1024D000616808432749086000F0FCFD06002548B4
:1024E000006810F00C006168B0EB810F08D000F0BC
:1024F000F1FD801B41F289318842F0D3032035E0A1
:102500001B48006810F00F00854209D2184805707A
:102510001748006810F00F00A84201D0012025E004
:102520002078400707D51348006830F4E050E16890
:102530000843104908602078000708D50D48006856
:1025400030F46040216950EAC1000A49086000F097
:1025500019F80A49074A1268C2F30312895CC84095
:10256000074908600F2000F0F1FE002070BD000058
:10257000003C024008380240003802407041000828
:1025800094010020F0B500240026002700252148F2
:10259000006810F00C00002804D0042805D008289A
:1025A00006D032E01C48050031E01C4805002EE052
:1025B0001B48006810F03F00040019480068400202
:1025C0000CD517480068C0F388101449A1FB00011E
:1025D0002200002300F0E0FE06000BE01048006837
:1025E000C0F388100C49A1FB00012200002300F079
:1025F000D3FE06000A480068C0F30140401C4000BA
:102600000700B6FBF7F0050001E0034805002800CD
:10261000F0BD00BF083802400024F40040787D017E
:102620000438024010B50400002C01D1012014E050
:1026300094F83900002805D1002084F838002000E3
:1026400000F0ADFD022084F83900211D206800F063
:10265000BAF9012084F83900002010BD38B5040013
:102660000D0000222900206800F02FFA2068DFF812
:10267000DC10884211D12068006A41F21111084231
:102680000BD12068006A40F24441084205D120681D
:10269000406C30F40040216848642068006A41F2D0
:1026A000111108420BD12068006A40F244410842EF
:1026B00005D12068006840084000216808600120BA
:1026C00084F83900002032BD38B504000D00280020
:1026D000002806D004280BD0082810D00C2815D0CC
:1026E0001BE02068C06850F002002168C86014E058
:1026F0002068C06850F004002168C8600DE02068C0
:10270000C06850F008002168C86006E02068C06812
:1027100050F010002168C860FFE7012229002068FE
:1027200000F0D3F92068DFF82410884205D1206832
:10273000406C50F40040216848642068006850F004
:10274000010021680860002032BD00000000014047
:1027500010B504002068006980071AD52068C06899
:10276000800716D57FF002002168086101202076DD
:102770002068806910F0030F03D0200000F083FE72
:1027800005E0200000F080FE200000F086FD002023
:1027900020762068006940071AD52068C068400785
:1027A00016D57FF004002168086102202076206899
:1027B000806910F4407F03D0200000F064FE05E043
:1027C000200000F061FE200000F067FD0020207670
:1027D0002068006900071AD52068C068000716D570
:1027E0007FF0080021680861042020762068C06915
:1027F00010F0030F03D0200000F045FE05E020009C
:1028000000F042FE200000F048FD00202076206805
:102810000069C0061AD52068C068C00616D57FF0CA
:10282000100021680861082020762068C06910F433
:10283000407F03D0200000F026FE05E0200000F0DD
:1028400023FE200000F029FD00202076206800698A
:10285000C0070AD52068C068C00706D57FF0010010
:1028600021680861200000F010FE20680069000661
:102870000AD52068C068000606D57FF08000216870
:102880000861200000F002FE2068006940060AD5B9
:102890002068C068400606D57FF0400021680861C6
:1028A000200000F0F4FD2068006980060AD5206849
:1028B000C068800606D57FF02000216808612000EE
:1028C00000F0E6FD10BD70B504000D00160094F890
:1028D0003800012801D1022074E0012084F838007A
:1028E000022084F839003000002806D004281BD0CC
:1028F000082831D00C2846D05DE02900206800F07F
:10290000F3F82068806950F0080021688861206829
:10291000806930F004002168886120688069296935
:1029200008432168886146E02900206800F098F893
:102930002068806950F4006021688861206880699F
:1029400030F480602168886120688069296950EAD4
:102950000120216888612EE02900206800F0F4F849
:102960002068C06950F008002168C8612068C0690B
:1029700030F004002168C8612068C06929690843F3
:102980002168C86117E02900206800F011F920686B
:10299000C06950F400602168C8612068C06930F4E3
:1029A00080602168C8612068C069296950EA0120F7
:1029B0002168C861FFE7012084F83900002084F80D
:1029C0003800002070BD002203681A00DFF834329E
:1029D00098420CD0B0F1804F09D0DFF82C329842E9
:1029E00005D08A4B984202D0894B984201D10123ED
:1029F00000E00023DBB2002B03D032F070024B6802
:102A00001A43804B984214D0B0F1804F11D07E4BC6
:102A100098420ED07D4B98420BD07D4B984208D007
:102A20007C4B984205D07C4B984202D07B4B98421D
:102A300001D1012300E00023DBB2002B03D032F4EC
:102A40004072CB681A4302608B68C3620B68836272
:102A50006C4B984201D10B690363012343617047BA
:102A600030B4002200230024056A35F01005056209
:102A7000056A2B0045682C0085692A0032F4E04283
:102A800032F440720D6852EA052233F020038D685B
:102A900053EA05135B4DA84210D133F08003CD6893
:102AA00053EA051333F0400334F4806434F40064D3
:102AB0004D6954EA85048D6954EA85044460826155
:102AC0004D688563036230BC704730B40023012435
:102AD0008C402300046A9C430462046A12FA01F5E4
:102AE0002C43046230BC704730B400220023002421
:102AF000056A6D086D000562056A2B0045682C00AB
:102B000085692A0032F07002920892000D682A430B
:102B100033F002038D682B433A4DA8420DD133F0B8
:102B20000803CD682B4333F0040334F4807434F489
:102B300000744D692C438D692C43446082614D685B
:102B40004563036230BC704730B400220023002488
:102B5000056A35F480750562056A2B0045682C000E
:102B6000C5692A0032F07002920892000D682A436B
:102B700033F400738D6853EA0523224DA84210D127
:102B800033F40063CD6853EA052333F4806334F4EF
:102B9000805434F400544D6954EA05148D6954EAA4
:102BA00005144460C2614D68C563036230BC704760
:102BB00030B4002200230024056A35F480550562F4
:102BC000056A2B0045682C00C5692A0032F4E042F2
:102BD00032F440720D6852EA052233F400538D68D6
:102BE00053EA0533074DA84204D134F480444D69BB
:102BF00054EA85144460C2614D680564036230BCC8
:102C00007047000000000140000400400008004040
:102C1000000C0040004001400044014000480140D9
:102C2000020092F83800012801D1022024E001209E
:102C300082F83800022082F839001068406830F0CD
:102C4000700013685860106840680B681843136878
:102C500058601068806830F08000136898601068D1
:102C600080684B68184313689860012082F8390027
:102C7000002082F8380000207047000010B50400E2
:102C8000002C01D1012047E0606A0028A06AB0F55D
:102C9000005F94F85100002805D1002084F850000E
:102CA000200000F01DFA022084F85100206800681E
:102CB00030F04000216808606068A1680843E1685E
:102CC00008432169084361690843A16911F400714F
:102CD0000843E1690843216A0843A16A084321685F
:102CE0000860A069000C10F00400616A08432168C4
:102CF0004860A06AB0F5005F02D1E06A216808610F
:102D00002068C06930F400602168C86100206065F7
:102D1000012084F85100002010BD2DE9F04F85B04E
:102D200004008A4693461D000E9E0020029000205B
:102D300003900020ADF8040000275FF001085FF069
:102D4000000994F85000012801D1022057E1012028
:102D500084F8500000F0BEF9070094F8510002908A
:102D600060680390029801280CD00398B0F5827F28
:102D700005D1A068002802D10298042802D00220C0
:102D8000814634E1BAF1000F05D0BBF1000F02D04B
:102D9000ADB2002D02D10120814628E194F8510006
:102DA000012802D1052084F8510000206065C4F894
:102DB00038B0E587A587C4F830A0E586A586002051
:102DC000206400206064A06AB0F5005F0CD1206828
:102DD00000684DF6FF7108402168086020680068AF
:102DE00050F400502168086020680068400605D44F
:102DF0002068006850F0400021680860E068B0F585
:102E0000006F54D16068002802D0E08E012808D1FC
:102E1000BAF800002168C8601AF1020AE08E401E6C
:102E2000E086E08E002803D1E08F002800F0938038
:102E3000B8F1000F1ED0E08E00281BD020688068FB
:102E4000800717D5BAF800002168C8601AF1020A95
:102E5000E08E401EE08600208046E08E002809D1EA
:102E6000A06AB0F5005F05D12068006850F480507A
:102E700021680860E08F00280ED020688068C007B5
:102E80000AD52068C068ABF800001BF1020BE08F88
:102E9000401EE0870120804616F1010FC1D000F0EE
:102EA00019F9C01BB042BCD3032081469FE0606883
:102EB000002802D0E08E012808D19AF8000021688D
:102EC00008731AF1010AE08E401EE086E08E0028A9
:102ED00002D1E08F00283ED0B8F1000F1ED0E08E66
:102EE00000281BD020688068800717D59AF800005A
:102EF000216808731AF1010AE08E401EE086002066
:102F00008046E08E002809D1A06AB0F5005F05D1A7
:102F10002068006850F4805021680860E08F002825
:102F20000ED020688068C0070AD52068C0688BF87A
:102F300000001BF1010BE08F401EE087012080465E
:102F400016F1010FC2D000F0C5F8C01BB042BDD3CE
:102F5000032081464BE0A06AB0F5005F15D10097D1
:102F6000330001220121200000F04CF8002806D097
:102F7000606D50F0020060650320814637E02068F4
:102F8000C068ADF80400BDF8040020688068C00681
:102F900009D5606D50F0020060654FF6EF70216852
:102FA0008860012081460097330001220221200021
:102FB00000F028F8002802D00320814617E03A00EC
:102FC0003100200000F06FF8002804D00120814675
:102FD000202060650BE0A068002808D10020009048
:102FE0002068C068009020688068009000980120E8
:102FF00084F85100002084F850004846C0B205B063
:10300000BDE8F08F2DE9F04104000D0016001F000F
:10301000DDF81880206880682840A84201D101208E
:1030200000E00020B0423BD017F1010FF2D0002F9A
:1030300005D000F04FF8B0EB0800B842EAD32068A2
:10304000406830F0E000216848606068B0F5827F39
:103050000DD1A068B0F5004F03D0A068B0F5806F27
:1030600005D12068006830F0400021680860A06A3F
:10307000B0F5005F0CD1206800684DF6FF71084084
:10308000216808602068006850F4005021680860DA
:10309000012084F85100002084F85000032000E053
:1030A0000020BDE8F08170B582B004000D0016006C
:1030B00000962B00002280212000FFF7A3FF0028AC
:1030C00005D0606D50F020006065032000E0002016
:1030D00076BD000001480068704700BF440700202B
:1030E00010B586B0040020688A49884255D1002076
:1030F00000908948006850F00100874908608648C0
:10310000006810F0010000900098002000908248B4
:10311000006850F00100804908607F48006810F0A6
:10312000010000900098002000907B48006850F05B
:103130000100794908607848006810F001000090AB
:103140000098002000907548006850F48050734942
:1031500008607248006810F48050009000982020A9
:10316000019002200290002003900120049005208D
:10317000059001A96A48FEF78BFF402001900520C9
:10318000059001A96648FEF783FF80200190052085
:10319000059001A96248FEF77BFF06B010BD10B58F
:1031A00086B0040020685F49884224D10020009046
:1031B0005D48006850F002005B4908605A480068AA
:1031C00010F00200009000988020019002200290F0
:1031D00000200390002004900220059001A953488C
:1031E000FEF756FF002204211D20FFF7EAF81D20FC
:1031F000FFF7FAF84FE02068B0F1804F24D10020AB
:1032000000904948006850F001004749086046486E
:10321000006810F001000090009808200190022042
:10322000029000200390002004900120059001A945
:103230003F48FEF72DFF002204211C20FFF7C1F8B4
:103240001C20FFF7D1F826E020683A49884222D1B5
:10325000002000903448006850F0040032490860B3
:103260003148006810F00400009000984FF480602E
:10327000019001200290002003900020049001A9F9
:103280002B48FEF705FF002203211E20FFF799F8C7
:103290001E20FFF7A9F806B010BD10B50400206885
:1032A000204988420AD1207E022807D1002000F060
:1032B0006DF9082802D0002000F0A2F92068B0F1D2
:1032C000804F0AD1207E022807D1012000F05EF94C
:1032D000082802D0012000F093F92068154988429F
:1032E00016D1207E042813D14FF480611048FEF7D8
:1032F000C8FF022000F04AF9082809D04FF4806185
:103300000B48FEF7A8FF012802D1022000F078F94F
:1033100010BD000000300140303802404438024007
:103320000000024000040040403802400008024013
:10333000000402400008004010B50400A4B2B4F537
:10334000806F01D100F00BF910BD000010B5040032
:103350004FF47A700D490978B0FBF1F00C49096817
:10336000B1FBF0F0FFF747F8002801D001200CE096
:10337000102C09D2002221005FF0FF30FFF721F866
:1033800004480460002000E0012010BD98010020E6
:1033900094010020900100201B4213D1094236D134
:1033A0002AB18446B0FBF2F002FB10C2704700F075
:1033B0003BBAFCD30022002370470B00020000211F
:1033C00000207047904271EB030CF6D370B5B1FA50
:1033D00081F4B3FA83F52C1BA340C4F1200532FA23
:1033E00005F63343A2405FF00046E64002E05B088A
:1033F0005FEA3202841A71EB030524BF2046294696
:103400007641F4D302000B003000002170BD012A88
:10341000CFD970B5140C20D0B1FA81F4B2FA82F58C
:10342000C4F120046419B4F12006D6D3B2405FF091
:103430000044F440002502E052085FEA3303C61A54
:1034400071EB020E24BF3046714664416D41F3D3E7
:1034500002000B002000290070BD0C46B1FBF2F108
:1034600002FB11452D0445EA1045B5FBF2F402FBC1
:10347000145580B240EA0545B5FBF2F002FB10524C
:1034800040EA044070BD704770477047704770470E
:103490007047000010B50400DFF8900200680028B3
:1034A0000CD0DFF8880200688068002806D0200071
:1034B000DFF8781209688968884703E040F602005F
:1034C00000F01AF810BD10B50400DFF860020068C3
:1034D00000280CD0DFF854020068C068002806D02D
:1034E0002000DFF848120968C968884703E040F601
:1034F000030000F001F810BD10B50400DFF82C0245
:10350000006800280FD0DFF824020068D0F8F0002F
:10351000002808D0200080B2DFF810120968D1F826
:10352000F010884700E0FEE710BD38B504000D003C
:10353000DFF8F801006800280CD0DFF8F00100681F
:103540000068002806D02800DFF8E0110968096843
:10355000884703E04FF40060FFF7CEFF31BD80B530
:10356000DFF8C801006800280BD0DFF8C001006850
:103570004069002805D0DFF8B40100684069804741
:1035800003E040F60500FFF7B7FF01BD38B50400C2
:103590000825DFF89801006800280ED0DFF88C01BC
:1035A0000068406A002808D02000C0B2DFF87C1113
:1035B0000968496A8847050003E040F60900FFF7FB
:1035C0009BFF2800C0B232BD38B504000D00DFF803
:1035D0005C01006800280ED0DFF850010068406CE4
:1035E000002808D029002000C0B2DFF8402112686E
:1035F000526C904703E040F61100FFF77DFF31BDAC
:1036000010B50400DFF82401006800280DD0DFF8B1
:103610001C010068406F002807D02000C0B2DFF80E
:103620000C110968496F884703E040F61D00FFF759
:1036300063FF10BD10B50400DFF8F000006800283B
:103640000DD0DFF8E8000068806F002807D0200068
:10365000C0B2DFF8D8100968896F884703E040F6E8
:103660001E00FFF749FF10BD70B504000D000026D5
:10367000DFF8B8000068002811D0DFF8B00000685B
:10368000D0F8840000280AD029002000C0B2DFF85A
:103690009C201268D2F884209047060003E040F690
:1036A0002100FFF729FF300070BD38B50400002568
:1036B000DFF878000068002810D0DFF8700000689C
:1036C000D0F88800002809D02000C0B2DFF85C10D4
:1036D0000968D1F888108847050003E040F6220009
:1036E000FFF70AFF280080B232BD70B504000D005C
:1036F0001600DFF838000068002811D0DFF82C0031
:103700000068D0F8900000280AD03200290020007C
:10371000C0B2DFF818301B68D3F89030984703E048
:1037200040F62400FFF7E8FE70BD000048070020C7
:1037300070B504000D003B4804800026A4B241F699
:103740004A10844204D1FCF7B1FF354908604EE0CD
:10375000A4B2012C04D100F068F83149086046E0B9
:10376000A4B241F63E00844204D100F060F82C4936
:1037700008603CE0A4B2B4F5C25F04D100F059F88F
:103780002749086033E0A4B2DC2C04D100F053F8E0
:10379000234908602BE0A4B241F64610844204D0CD
:1037A000A4B241F64810844204D100F046F81C4906
:1037B00008601CE0A4B241F65010844204D0A4B2C8
:1037C00041F65210844204D100F039F814490860DF
:1037D0000DE0A4B2F02C02D0A4B2FA2C04D100F077
:1037E00030F80F49086002E000200D4908600C48DD
:1037F0000068002810D00A480068D0F8440100286A
:103800000AD0EDB2002D07D02800C0B204490968E3
:10381000D1F84411884706003000C0B270BD0000E6
:103820004807002050070020704700207047002004
:10383000704700207047002070470020704700202C
:10384000704700207047000070B582B00400002C63
:1038500001D10120BEE12078C00769D5DFF87803E7
:10386000006810F00C0004280BD0DFF86C0300682F
:1038700010F00C0008280ED1DFF860030068400249
:1038800009D5DFF85C030068800351D56068002823
:103890004ED101209EE16068B0F5803F08D1DFF88D
:1038A0004003006850F48030DFF83413086020E0F3
:1038B0006068B0F5A02F10D1DFF82403006850F441
:1038C0008020DFF81C130860DFF81403006850F450
:1038D0008030DFF80C1308600BE0C148006830F45A
:1038E0008030BF490860BE48006830F48020BC4981
:1038F0000860606800280DD0FFF7ECFB0500B848B1
:103900000068800314D4FFF7E5FB401B6528F6D35D
:1039100003205FE1FFF7DEFB0500B148006880038C
:1039200006D5FFF7D7FB401B6528F6D3032051E1EE
:103930002078800750D5A848006810F00C0F09D0F7
:10394000A548006810F00C00082816D1A3480068AC
:10395000400212D4A2480068800704D5E06801281C
:1039600001D0012036E19E48006830F0F80021695E
:1039700050EAC1009A4908602EE0E06800281AD099
:10398000012098490860FFF7A5FB050094480068EE
:10399000800706D4FFF79EFB401B0328F6D30320C5
:1039A00018E18F48006830F0F800216950EAC10042
:1039B0008B49086010E000208A490860FFF78AFB05
:1039C000050087480068800706D5FFF783FB401B8A
:1039D0000328F6D30320FDE02078000724D5606992
:1039E000002810D0012080490860FFF773FB050014
:1039F0007E480068800717D4FFF76CFB401B032844
:103A0000F6D30320E6E0002077490860FFF762FB69
:103A1000050076480068800706D5FFF75BFB401B72
:103A20000328F6D30320D5E02078400740F17F80BB
:103A300000266F480068C0000FD4002000906C483A
:103A4000006850F080506A4908606948006810F0CA
:103A50008050009000980120060066480068C0056C
:103A600013D46448006850F4807062490860FFF71E
:103A700031FB05005F480068C00506D4FFF72AFB4C
:103A8000401B0328F6D30320A4E0A068012806D138
:103A90005948006850F00100574908601BE0A068D1
:103AA00005280CD15448006850F0040052490860C1
:103AB0005148006850F001004F4908600BE04E4843
:103AC0000068400840004C4908604B48006830F0EE
:103AD000040049490860A06800280FD0FFF7FAFAEF
:103AE000050045480068800718D4FFF7F3FA401B2B
:103AF00041F289318842F4D303206BE0FFF7EAFA00
:103B000005003D480068800708D5FFF7E3FA401B31
:103B100041F289318842F4D303205BE0F6B2012EF2
:103B200005D13348006830F0805031490860A06901
:103B300000284ED02848006810F00C00082846D015
:103B4000A069022832D100202C490860FFF7C2FA90
:103B5000050023480068800106D5FFF7BBFA401B2B
:103B60000328F6D3032035E0E069216A0843616A3F
:103B700050EA8110A16A891EC903090C090408438F
:103B8000E16A50EA01601549086001201B4908609C
:103B9000FFF7A0FA050012480068800119D4FFF76A
:103BA00099FA401B0328F6D3032013E000201349A1
:103BB0000860FFF78FFA050009480068800108D502
:103BC000FFF788FA401B0328F6D3032002E0012008
:103BD00000E0002076BD00BF0838024004380240F3
:103BE0000038024000004742800E474274380240CD
:103BF0004038024000700040703802406000474288
:103C000010B500F01FF900F03FF9012141F64A100C
:103C1000FFF78EFD884941F64A10FFF786FC0FF248
:103C2000F510FFF750FC0FF2F910FFF733FC0121FC
:103C30000020FFF719FD0400012C04D0012201210E
:103C40000020FFF752FD01210020FFF70DFD0400C9
:103C500002210020FFF708FD0400402C04D0402280
:103C600002210020FFF741FD03210020FFF7FCFCAB
:103C70000400012C04D0012203210020FFF735FDB0
:103C80000E210020FFF7F0FC0400352C04D0352273
:103C90000E210020FFF729FD13210020FFF7E4FC8F
:103CA0000400012C04D0012213210020FFF71DFD88
:103CB00016210020FFF7D8FC04008C2C04D08C22A5
:103CC00016210020FFF711FD17210020FFF7CCFC83
:103CD0000400CF2C04D0CF2217210020FFF705FDD0
:103CE00018210020FFF7C0FC0400B4F5325F05D0B6
:103CF0004FF4325218210020FFF7F7FC0921002071
:103D0000FCF769FCDFED480AB4EE600AF1EE10FA48
:103D100013D19FED460A09210020FCF71BFF092162
:103D20000020FCF758FCDFED410AB4EE600AF1EE2A
:103D300010FA02D0012000F073F80F210020FCF7E8
:103D40004AFCF0EE080AB4EE600AF1EE10FA13D164
:103D5000B1EE000A0F210020FCF7FCFE0F2100202D
:103D6000FCF739FCF1EE000AB4EE600AF1EE10FA4D
:103D700002D0022000F054F810210020FCF72BFCA8
:103D8000F3EE050AB4EE600AF1EE10FA13D1B3EEC9
:103D9000060A10210020FCF7DDFE10210020FCF7B0
:103DA0001AFCF3EE060AB4EE600AF1EE10FA02D045
:103DB000032000F035F813210020FCF70CFCDFEDA8
:103DC0001C0AB4EE600AF1EE10FA13D19FED190A45
:103DD00013210020FCF7BEFE13210020FCF7FBFBA3
:103DE000DFED140AB4EE600AF1EE10FA02D00420FE
:103DF00000F016F811490020FFF7E6FB0020FFF75E
:103E000019FC4FF4C8510020FFF7DEFB0020FFF73C
:103E100011FCEFE780B50020FFF747FC01BD000073
:103E200007490880FEE7000000007A4300A08C43A9
:103E300000803B4400A08C446401002000E7FFFFA9
:103E40004E07002080B50E48006850F400700C4901
:103E500008600B48006850F4806009490860084811
:103E6000006850F48070064908600320FEF7A3FA4A
:103E70000F20FFF76BFA00F005F8002002BD0000EC
:103E8000003C02407047000000B593B00020009055
:103E90002648006850F08050244908602348006894
:103EA00010F080500090009800200090204800689A
:103EB00030F4404050F400401D4908601C48006840
:103EC00010F44040009000980220069001200990D4
:103ED00010200A9002200C9000200D9010200E90CF
:103EE0004FF4A8700F90042010900720119006A89E
:103EF000FFF7AAFC002802D00020FFF791FF0F2057
:103F0000019002200290002003904FF48050049012
:103F100000200590022101A8FEF784FA002802D0B3
:103F20000120FFF77DFF13B000BD00BF4038024005
:103F300000700040F0B4016844688368014401EBFC
:103F40005402E40748BF4B44914202D1F0BC0C300C
:103F5000704711F8015B15F0030604BF11F8014B1F
:103F6000E61C2C090F2C07D111F8014B0F3403E08C
:103F700011F8017B03F8017B761EF9D1002CE3D008
:103F8000AD0811F8016B05F00305032D08BF11F80A
:103F9000015B06EB05256D42A41C1D44D4D015F829
:103FA000016B03F8016B641EF9D1CDE7124800687C
:103FB00050F47000104908601048006850F001008B
:103FC0000E49086000200E4908600C4800680D4941
:103FD00008400A4908600C480C4908600748006816
:103FE00030F48020054908600020094908605FF02E
:103FF000006008490860704788ED00E00038024022
:1040000008380240FFFFF6FE10300024043802405A
:104010000C38024008ED00E07047FEE7FEE7FEE7DF
:10402000FEE770477047704780B500F01DF801BD8E
:1040300080B54FF48060FEF729F901BD80B50748CF
:10404000FEF786FB01BD80B50548FEF781FB01BD8B
:1040500080B50448FEF77CFB01BD0000AC060020E3
:1040600070060020E806002003480068034909782C
:10407000401801490860704744070020980100205B
:1040800019E050F8041BCB0744BFA9F101035918EC
:10409000121F0023042A41F8043BF9D25FEA827C14
:1040A0000B4604D54FF0000CA1F800C09B1CD107B3
:1040B00044BF0021197050F8042B002AE1D1704749
:1040C00010B5074979441831064C7C44163404E095
:1040D0000A68081D114488470146A142F8D110BD65
:1040E0002C000000480000004EF68851CEF200017E
:1040F000086840F470000860BFF34F8FBFF36F8F04
:104100004FF00070E1EE100A7047000075FFFFFFEE
:10411000B8010000A00500200000000019FEFFFF0C
:104120004C010000E20100000000002000F00BF84C
:10413000002801D0FFF7C4FF0020AFF30080FFF795
:104140005FFD00F002F80120704700F001B80000A8
:104150000746384600F002F8FBE7000080B5AFF3F1
:104160000080024A11001820ABBEFBE726000200C7
:104170000000000000000000010203040607080917
:104180000148804701480047AD3F000891410008C1
:10419000AFF30080FFF7A8FFFFF7C8FFFFF7FEBFF0
:1041A000FFF7FEBFFFF7FEBFFFF7FEBFFFF7FEBF43
:1041B000FFF7FEBFFFF7FEBFFFF7FEBFFFF7FEBF33
:1041C000FFF7FEBFFFF7FEBFFFF7FEBFFFF7FEBF23
:1041D000FFF7FEBFFFF7FEBFFFF7FEBFFFF7FEBF13
:1041E000FFF7FEBFFFF7FEBFFFF7FEBFFFF7FEBF03
:1041F000FFF7FEBFFFF7FEBFFFF7FEBFFFF7FEBFF3
:10420000FFF7FEBFFFF7FEBFFFF7FEBFFFF7FEBFE2
:10421000FFF7FEBFFFF7FEBFFFF7FEBFFFF7FEBFD2
:10422000FFF7FEBFFFF7FEBFFFF7FEBFFFF7FEBFC2
:10423000FFF7FEBFFFF7FEBFFFF7FEBFFFF7FEBFB2
:10424000FFF7FEBFFFF7FEBFFFF7FEBFFFF7FEBFA2
:10425000FFF7FEBFFFF7FEBFFFF7FEBFFFF7FEBF92
:10426000FFF7FEBFFFF7FEBFFFF7FEBF100B4105D4
:104270000008D3090008950100089D0412000110F0
:1042800003E1100008C71810036306000873041246
:10429000830412A70412B30412C70412D70412EF46
:1042A0000410036B0700087B04129B0410036708CB
:1042B0000008474813090A081104100B030B0008F3
:1042C000CD0C00085B0D0008B50412E10410035585
:1042D0000E0008E9041007D91600083D0F0008A5D4
:1042E0007012B50412C504100321030008FB04106A
:1042F000030B040008DB4812ED0422FB98114C4329
:104300001F0D98A101F301E30814E101F301E70691
:1043100024F30DC1103812CDA08359072412030CC9
:10432000F30D9506342297DC11F0F305D70528121A
:10433000A00220104006200300007A43006086445B
:1043400000000B8004402A1240064002A841002CC5
:0D4350003612C70722100B000224F40001F2
:04000005080041911D
:00000001FF
