:020000040800F2
:1000000068050020BD4700088546000887460008AF
:1000100000000000000000000000000000000000E0
:100020000000000000000000000000008B460008F7
:1000300000000000000000008D4600088F46000808
:100040003F1D0008AF1D000817310008E737000802
:100050002338000827380008734500089746000831
:100060008B47000897470008E5470008E747000866
:10007000E9470008EB47000800000000A34600081D
:1000800000000000ED470008000000000000000034
:10009000B746000800000000AD460008EF47000822
:1000A000F1470008F3470008F5470008F747000844
:1000B000F9470008FB470008FD470008FF47000814
:1000C000C84908607047C8490860704710B5040007
:1000D000A8212000C0B200F0E5FE10BD10B504005C
:1000E000B8212000C0B200F0DDFE10BDF1B582B035
:1000F0000C0000266846BD4909786A46127A891ABA
:10010000491E017000270020B9490870FFB2002F76
:1001100003D001F09FFB0020070000200500B3483A
:10012000007885421CD20020B24948550020B149D0
:100130004919C8700020AF49491988710020AD499C
:10014000491948720020CD494919C8700020CB498F
:10015000491988710020C949491948726D1CDEE7A8
:100160002000401E07D0401E0FD0401E03D015387F
:1001700001280AD914E02100202008439D496A463D
:10018000127888540320060014E021002020084340
:1001900098496A4612788918C8700220060009E05A
:1001A00021002020084393496A46127889188871F3
:1001B0000120060001F04CFB012007008C4800786C
:1001C0000028A0D10320F6B2801B0500042D0BD21D
:1001D000AA48032169434118864803226A438018CC
:1001E00001F00DFB6D1CF1E7A44869460978401841
:1001F000C0780004A1496A461278891889790902F1
:1002000001439E486A4612788018407A084301905C
:1002100001F020FB0198FEBDF8B506007348007898
:10022000801B471E0025002071490870EDB2002D8B
:1002300003D001F00FFB00200500002004006B48F4
:100240000078844214D200206A4908550020694988
:100250000919C87000206749091988710020874969
:100260000919C8700020854909198871641CE6E7DE
:10027000D0206049FFB2C85501F0EAFA012005001C
:100280005B4800780028CED100200400032C0BD25C
:100290007A4803216143411856480322624380187B
:1002A00001F0ADFA641CF1E77448FFB2C019C078E0
:1002B00000027249FFB2C91989790843694608806A
:1002C00001F0C8FA68460088F2BD10B504000021AC
:1002D0002000C0B200F0E6FD10BDF5B581B00E0003
:1002E00000274248007869460979401A451E0020D7
:1002F0006946087000203E4908706846007800286A
:1003000004D001F0A7FA002069460870002004001C
:1003100036480078844210D2002036490855002023
:1003200034490919C8700020324909198871002020
:10033000304909194872641CEAE73000012806D0E8
:10034000022817D0032802D0182813D020E030004C
:100350002849EDB248550298000C2649EDB24919DA
:10036000C8700298000A2349EDB249198871032028
:10037000070014E030001F49EDB24919C870029817
:10038000000A1C49EDB2491988710220070006E0F5
:1003900030001849EDB24919887101200700029810
:1003A0001449EDB24919487201F052FA0120694628
:1003B00008700F48007800289CD10320FFB2C01BB2
:1003C0000400042C0BD22D48032161434118094835
:1003D00003226243801801F012FA641CF1E701F075
:1003E00039FAF7BDFC060020F80600200E070020B1
:1003F0000F070020E006002010B50400CA4800885E
:10040000C0B201F029FA01F09FFB002803D0802040
:10041000000200F022FDC4480088C0B201F004FBD5
:10042000C1480088C0B201F058FB012001F00AFA6F
:10043000002C05D1BC480088C0B200F0D7FD05E013
:100440002100B9480088C0B200F060FDB6480088BD
:10045000C0B2FFF73BFEB4480088C0B2FFF7DCFE35
:10046000B1480088401CB049088010BDC449C0B2E2
:10047000282250430818008B70470000EC0600202B
:10048000F8B506000D0029003000C0B2FFF72EFEBF
:1004900004002800401E09D0801E07D0801F0CD009
:1004A000801F012815D9001F0DD018E0200000F092
:1004B000C5FC01F0B5FB070015E02000C0B201F05B
:1004C00009FC07000FE02000C0B201F00FFC07009C
:1004D00009E02000C0B201F015FC070003E0200095
:1004E00001F0AAFB07003800F2BDA549C0B22822DE
:1004F00050430818008C7047A149C0B228225043CD
:100500000818408B70479E49C0B2282250430818F3
:100510002421405C70479A49C0B2282250430818F1
:100520002321405C7047852040027047D0487047C7
:1005300010B5040003212000C0B2FFF7D7FD00F082
:100540007DFC10BD8E49C0B2282250430818808B14
:1005500070478B49C0B2282250430818C08B70479F
:10056000D6480078704710B5040001212000C0B2C1
:10057000FFF7BCFD00F062FC10BD70B50400162151
:100580002000C0B2FFF7B2FD4007400F0821014331
:100590000E00F6B2082E07D015D30A2E0AD006D3C5
:1005A0000C2E0DD009D30EE0002005000DE0012037
:1005B00005000AE00220050007E00320050004E032
:1005C0000420050001E0FE2005002800C0B270BD37
:1005D0006B49C0B22822504308182521405C70475F
:1005E00010B5040000212000C0B200F011F810BDC9
:1005F00038B5040003212000C0B2FFF777FD00F0FA
:100600001DFC050029002000C0B200F001F831BD3A
:10061000F8B504000D005A48E4B22821614340189F
:100620002421405C082803D02000C0B200F048F824
:1006300001212000C0B2FFF759FD00F0FFFB504937
:10064000E4B228226243891848604D48E4B2282168
:10065000614340184068281A0600002E08D4484814
:10066000E4B228216143401846610120070008E0F8
:1006700070424349E4B2282262438918486100204D
:100680000700002E1BD001203D49E4B2282262431E
:100690008918222288543900C9B22000C0B200F063
:1006A00039FA3748E4B228216143401841692000F3
:1006B000C0B200F04DFB2000C0B200F053FEF1BD0F
:1006C00010B504002E48E4B22821614340182521CA
:1006D000405C002822D12000C0B201F0E5F90820DA
:1006E0002749E4B22822624389182422885403202F
:1006F0002349E4B2282262438918222288549D4863
:100700001F49E4B2282262438918486100201C492D
:10071000E4B2282262438918088403E02000C0B2B2
:1007200000F004F810BD00000807002010B5040018
:100730002000C0B201F0B8F92000C0B2FFF7C6FC3B
:1007400008200F49E4B228226243891824228854E1
:1007500003200B49E4B228226243891822228854DC
:1007600084480749E4B2282262438918486100207E
:100770000349E4B2282262438918088410BD0000AE
:100780006805002070B504000D0016007A48E4B238
:100790002821614340182421405C082803D0200010
:1007A000C0B2FFF78DFF002E29D07348E4B2282194
:1007B00061434018466101206F49E4B22822624338
:1007C00089182222885401212000C0B2FFF78EFC34
:1007D00000F034FB6849E4B228226243891848607B
:1007E0002900C9B22000C0B200F094F93100200005
:1007F000C0B200F0ADFA2000C0B200F0B3FD70BD91
:10080000C3480088704710B5040019212000C0B209
:10081000FFF76CFC80B210BD10B504002000C0B220
:1008200001F05BF910BD10B504002000C0B201F06A
:100830005EF910BD10B50020040020001F490978A2
:10084000C0B2884213D22000C0B2FFF76FFF200071
:10085000C0B2FFF7E8FF012000F0F4FF2000C0B2B3
:1008600001F03BF9012000F0EDFF641CE5E710BD4D
:100870000000002038B505000C003F48EDB22821EB
:10088000694340182421405C082803D02800C0B2E6
:10089000FFF716FF2100C9B22800C0B200F03AF9F4
:1008A00000203549EDB228226A4389182222885453
:1008B0002800C0B200F056FD31BD00000E07002038
:1008C000F8B504000D00EDB2002D05D0022D09D0C1
:1008D00005D3032D09D00BE0082006000AE009200B
:1008E000060007E00A20060004E00B20060001E0F5
:1008F0000C2006002000C0B2FFF718FF16212000D0
:10090000C0B2FFF7F3FBF82101400F00FFB2F6B2CF
:1009100032003A4316212000C0B2FFF7DEFC00226D
:1009200001212000C0B2FFF7D8FC0120F2BD10B5B4
:100930000200002089B2002919D00F4BD2B228241E
:1009400054431B1924241B5D082B08D00A4BD2B238
:10095000282454431B1922241B5D002B07D1064B6E
:10096000D2B2282454431B19198301231800C0B2A2
:1009700010BD0000FFFFFF7F68050020FEB50700E7
:100980000E00140001252000002101F0C5F906D257
:10099000012E04D0032E02D00020050092E030008A
:1009A000401E34D0401E09D0401E30D0801F57D08A
:1009B000801F01286ED9001F5FD078E02000002141
:1009C00001F0BEF91CD02000B54901F0C9F914D9D5
:1009D000012001900720009016210020FFF786FBE0
:1009E0004107490F0098411A0198884001F018F911
:1009F0000100200001F090F902D20020050005E07E
:100A0000200001F0C1F9C005C00D029051E02000A6
:100A1000CA21090601F0A4F91FD82000AD4901F050
:100A20007BF91AD22000002101F09AF906D82000A3
:100A300001F0AAF98002800A029010E08020C00331
:100A40000090200080210906484001F09DF98102B4
:100A5000890A0098401A029001E00020050028E071
:100A600020009D4901F07CF902D80020050003E038
:100A7000200001F09DF902901BE02000B14901F037
:100A80006FF902D80020050003E0200001F0A4F96E
:100A900002900EE02000AC4901F062F902D800207B
:100AA000050003E0200001F0ABF9029001E0002016
:100AB0000500EDB2002D05D0029A31003800C0B219
:100AC000FFF70BFC2800C0B2FEBD10B502000020ED
:100AD00089B2002919D09D4BD2B2282454431B1946
:100AE00024241B5D082B08D0984BD2B228245443F1
:100AF0001B1922241B5D002B07D1944BD2B2282452
:100B000054431B19598301231800C0B210BD0000C3
:100B10000807002038B505000C008C48EDB22821EC
:100B2000694340182421405C08280CD18748EDB265
:100B3000282169434018232144542100C9B22800C8
:100B4000C0B200F0DEFF31BDF8B505000E00012196
:100B50002800C0B2FFF7CAFA00F070F9841B002C1D
:100B600003D4A002800A070006E08020C00361428F
:100B70008902890A401A07003A0001212800C0B200
:100B8000FFF7ABFBF1BD00B50100C9B2042906DADD
:100B90000020B94A1080C1480170012000E0002007
:100BA00000BD70B505000C00002C03D4A002800A23
:100BB000060006E08020C00361428902890A401ACB
:100BC0000600320003212800C0B2FFF786FB70BD8B
:100BD00030B50200002089B2022927DB89B2B04B70
:100BE000994223DA0B00594CD2B228255543641997
:100BF000E48B9BB2A34219D3544BD2B22824544362
:100C00001B1924241B5D082B08D0504BD2B228247A
:100C100054431B1922241B5D002B07D14B4BD2B22E
:100C2000282454431B19998301231800C0B230BDF6
:100C300010B50200002089B2022927DB89B2984B47
:100C4000994223DA414BD2B2282454431B199B8B7F
:100C50000C00A4B2A34219D33C4BD2B22824544373
:100C60001B1924241B5D082B08D0384BD2B2282432
:100C700054431B1922241B5D002B07D1334BD2B2E6
:100C8000282454431B19D98301231800C0B210BD76
:100C90002E4AC0B228234343D2182523D15470478B
:100CA0000180FF4310B501000020284AC9B2282363
:100CB0004B43D2182423D25C082A09D00222234BAA
:100CC000C9B228244C431B1922241A5501221000B2
:100CD000C0B210BDF9FFFF4901007A4510B504000C
:100CE0002000C0B2FFF70FFC0828F9D110BD38B5BD
:100CF00005000C00A4B2022C01DA02200400A4B208
:100D00006748844201DBB84804001048EDB228214E
:100D1000694340180484EDB2002D03D0022D0BD09E
:100D200005D30EE0200080B200F02AFE09E020008A
:100D300080B200F041FE04E0200080B200F058FED6
:100D4000FFE731BD0180BB450100804268050020FE
:100D5000FEB504000D006846DB49E4B22822624378
:100D60008918C98B8180D848E4B228216143401892
:100D7000808B69468988401A0600D348E4B228214E
:100D800061434018808B6946898840184643370084
:100D90003000CD49E4B2282262438918098B01F062
:100DA00059F8060076083800C749E4B228226243A1
:100DB0008918498B01F04EF807007F08F019854229
:100DC0002DD2C148E4B2282161434018408B0090E5
:100DD000BD48E4B2282161434018008B029000987E
:100DE00068430299009A891801F034F80700022F2D
:100DF00006D3781E0600002E04D10120060001E073
:100E000000200600B048E4B2282161434018866003
:100E1000AD48E4B228216143401807610DE0AA48BB
:100E2000E4B22821614340188660E81B401EA649B1
:100E3000E4B22822624389180861F7BD00B50200B8
:100E4000910208D5D1430A00521C9102890A080078
:100E50004142080000E0100000BD10B504009B48AE
:100E60000068002805D0200080B2984909688847AA
:100E700000E0FEE710BD00000807002080B59448A0
:100E80000068002808D00120924908709048006846
:100E9000804700208F49087001BD00000E07002028
:100EA00011270000F8B507000E0068468A49097846
:100EB000C91B491E01700025002088490870EDB249
:100EC000002D03D000F0C6FC002005000020040027
:100ED00081480078844205D200208149091948726E
:100EE000641CF5E77E48694609784018467200F0B0
:100EF000AFFC01200500794800780028DCD1794951
:100F0000794800F07CFC00F0A5FCF1BD38B5050087
:100F10000C0020886C49EDB228226A4389180883A6
:100F200060886949EDB228226A4389184883A088FD
:100F30006549EDB228226A4389188883E0886249AE
:100F4000EDB228226A438918C88300205E49EDB2B9
:100F500028226A43885000205B49EDB228226A4368
:100F60008918486000205849EDB228226A43891840
:100F7000886000205449EDB228226A438918C8606D
:100F800000205149EDB228226A43891808610020E7
:100F90004D49EDB228226A438918486100204A4928
:100FA000EDB228226A438918088403204649EDB22D
:100FB00028226A4389182222885401204249EDB22E
:100FC00028226A4389182322885408203E49EDB21A
:100FD00028226A4389182422885421002800C0B29C
:100FE00000F084F831BD00001027000010B50400A7
:100FF000A0203549E4B22822624389180883A02042
:101000003149E4B22822624389184883C820C000CD
:101010002D49E4B22822624389188883C8208000C1
:101020002949E4B2282262438918C883002026494E
:10103000E4B228226243885000202349E4B22822E7
:1010400062438918486000201F49E4B228226243A5
:101050008918886000201C49E4B22822624389185C
:10106000C86000201849E4B2282262438918086148
:1010700000201549E4B22822624389184861002003
:101080001149E4B2282262438918088403200E49DA
:10109000E4B22822624389182222885401200A4996
:1010A000E4B2282262438918232288540820064982
:1010B000E4B2282262438918242288542000C0B256
:1010C00000F06BF810BD000068050020FC06002051
:1010D000F8060020100700200E0700200F07002050
:1010E000E0060020F5060020E906002038B50500DE
:1010F0000C00002201212800C0B2FFF7EEF8002208
:1011000002212800C0B2FFF7E8F8002203212800DE
:10111000C0B2FFF7E2F8A26809212800C0B2FFF7C9
:101120002DFC607D227D02430E212800C0B2FFF716
:10113000D4F8A2690F212800C0B2FFF71FFCE269B2
:1011400010212800C0B2FFF719FCE2681321280023
:10115000C0B2FFF713FCA07CE27C024316212800FA
:10116000C0B2FFF7BAF8A26A17212800C0B2FFF791
:10117000B4F82420205C617C0143227C0A432220B5
:10118000205E80B202432020205E80B202431821FC
:101190002800C0B2FFF7A1F831BD10B5040000224D
:1011A00001212000C0B2FFF798F8002202212000A0
:1011B000C0B2FFF792F8002203212000C0B2FFF76F
:1011C0008CF8E4B2002C04D0022C00D187E043D389
:1011D000C7E0804800F0ECFDC0B202000921200009
:1011E000C0B2FFF77AF835220E212000C0B2FFF717
:1011F00074F8794800F004FE0200D2B20F212000FA
:10120000C0B2FFF76AF8754800F0FAFDC0B20200FC
:1012100010212000C0B2FFF760F801221321200046
:10122000C0B2FFF75AF88C2216212000C0B2FFF797
:1012300054F8CF2217212000C0B2FFF74EF8B22297
:10124000920118212000C0B2FFF747F800212000CA
:10125000C0B2FFF71DFD84E05E4800F0A9FDC0B2FA
:10126000020009212000C0B2FFF737F835220E2115
:101270002000C0B2FFF731F8574800F0C1FDC0B2FE
:1012800002000F212000C0B2FFF727F8534800F0FA
:10129000B7FDC0B2020010212000C0B2FFF71DF858
:1012A000012213212000C0B2FFF717F88C2216216B
:1012B0002000C0B2FFF711F8CF2217212000C0B2E2
:1012C000FFF70BF8B222920118212000C0B2FFF7FD
:1012D00004F800212000C0B2FFF7DAFC41E03D48ED
:1012E00000F066FDC0B2020009212000C0B2FEF786
:1012F000F4FF35220E212000C0B2FEF7EEFF364883
:1013000000F07EFDC0B202000F212000C0B2FEF747
:10131000E4FF324800F074FDC0B20200102120004A
:10132000C0B2FEF7DAFF012213212000C0B2FEF79F
:10133000D4FF8C2216212000C0B2FEF7CEFFCF22B0
:1013400017212000C0B2FEF7C8FFB2229201182177
:101350002000C0B2FEF7C1FF00212000C0B2FFF79D
:1013600097FC10BD10B504002000C0B2FEF7B6FE19
:101370001B48E4B22821614340188068002808D047
:1013800000201749E4B22822624389182422885495
:1013900007E002201249E4B228226243891824227D
:1013A000885400200E49E4B228226243885000206D
:1013B0000B49E4B2282262438918C8600848E4B2A5
:1013C000282161434018C18B2000C0B2FFF78FFC79
:1013D00010BD000000007A43000040400000A8411A
:1013E00068050020FEB5040001209149087091486D
:1013F000E4B2282161434018C068401C8D49E4B222
:10140000282262438918C8608A48E4B228216143CF
:1014100040182421405C002806D0022800D12DE18C
:10142000032800D1BBE0E6E18248E4B22821614311
:101430004018C06801907F48E4B2282161434018F9
:10144000806802907B48E4B2282161434018058CF3
:101450007848E4B2282161434018008B070475489E
:10146000E4B22821614340182221405C022811D0B7
:101470007048E4B22821614340182221405C0028D2
:1014800017D001986B49E4B2282262438918096990
:1014900088420ED102206749E4B2282262438918AB
:1014A0002422885400206349E4B2282262438850F1
:1014B00074E028005F49E4B2282262438918898BCE
:1014C00080B288420CD25B48E4B2282161434018C4
:1014D0002221405C00280CD001980299884208D152
:1014E00003205449E4B228226243891824228854F4
:1014F00054E00026ADB2002D01D1012005004D4879
:10150000E4B228216143415800913800ADB229006E
:1015100000F0A0FC009908184649E4B22822624372
:1015200088504448E4B22821614340588021490250
:1015300088420FD33F48E4B2282161434058BB4959
:1015400040183C49E4B22822624388506D1C0120B7
:101550000600E6E7F6B2002E20D03648E4B2282195
:1015600061434018808B290089B2884206D23148F5
:10157000E4B2282161434018808B05002D48E4B275
:1015800028216143401805842A48E4B22821614398
:101590004018018C2000C0B2FFF7A9FB2BE12548C1
:1015A000E4B2282161434018808B2249E4B228220A
:1015B00062438918C9681F4AE4B228236343D218DA
:1015C0002223D25C022A23D01A4AE4B2282363439E
:1015D000D2182223D25C002A07D0164AE4B228236C
:1015E0006343D2181269914212D2124AE4B22823FC
:1015F0006343D2182223D25C002A1DD102000D4B76
:10160000E4B2282565435B191B8C92B29A4213D22F
:101610000222084BE4B2282565435B1924255A555C
:101620000022044BE4B2282565435A5125E000BF4F
:1016300010070020680500207D4AE4B22823634398
:10164000D2182223D25C002A17D1794AE4B2282387
:101650006343D218128C03009BB29A420DD200222F
:10166000734BE4B2282565435B1924255A550022A3
:101670006F4BE4B2282565435A51BCE06C48E4B294
:10168000282161434018C06801906948E4B22821CC
:1016900061434018058C6648E4B228216143401834
:1016A000408B07046248E4B228216143401822219C
:1016B000405C022809D15E48E4B228216143401809
:1016C000C08B290089B2884211D25948E4B228213E
:1016D000614340182221405C00280DD001985449F4
:1016E000E4B22822624389184969884204D3200061
:1016F000C0B2FEF7E5FF7DE04D48E4B2282161432A
:1017000040182221405C002812D14948E4B2282127
:1017100061434018808B290089B2884208D3032096
:101720004349E4B22822624389182422885461E0A4
:101730003F48E4B2282161434018C08B290089B298
:10174000884257D20026ADB2002D01D101200500FC
:101750003748E4B228216143415800913800ADB2C6
:10176000290000F077FB009908183149E4B22822DB
:10177000624388502E48E4B22821614340588021BA
:101780004902884212D32A48E4B2282161434058D2
:10179000264940182649E4B2282262438850ADB257
:1017A000022D00DB6D1E01200600E3E7F6B2002EDD
:1017B00020D028001E49E4B2282262438918C98B30
:1017C00080B2884206D21A48E4B228216143401808
:1017D000C08B05001648E4B22821614340180584F7
:1017E0001348E4B2282161434018018C2000C0B2A4
:1017F000FFF77DFAFFE700200E490870F7BD38B506
:1018000004000D000C4802782900200000F0CCF9FB
:10181000002802D00948FFF720FB0648007800287E
:1018200002D001200649087031BD00000000FFFF12
:1018300068050020100700200E070020018000002E
:101840000F07002010B50400200000F05AFB10BD67
:1018500072B6704762B6704710B586B00400E4B245
:10186000002C5CD1B748006804210143B5480160F1
:10187000B44800680421084000900098B14800680E
:1018800001210143AF480160AE4800680100C9076B
:10189000C90F00910098AB48006802210143A94894
:1018A0000160A8480068022108400090009880204C
:1018B000C0000190BB4802900120039001200490D9
:1018C00001A9A020C00500F029FB00220521072066
:1018D00000F0B8FC072000F0BFFC40200190012080
:1018E0000290002003900120049001A9C34800F059
:1018F00015FB01224021C14800F007FC8020800038
:10190000019001200290002003900120049001A981
:10191000A020C00500F002FB002000F0E8F8E4B2CF
:10192000002C03D0022C1DD00FD327E080204000D4
:10193000019001200290002003900120049001A951
:10194000A020C00500F0EAFA18E020200190012054
:101950000290002003900120049001A9A74800F004
:10196000DDFA0BE01020019001200290002003908E
:101970000120049001A9A14800F0D0FA06B010BDE2
:1019800070B5060001F058F804002000B6B28021BE
:10199000C900714300F05EFA05006D1E98480068AA
:1019A000C5629748C560680895490968886304213D
:1019B000934801F03AF970BD70B5060001F03CF8AB
:1019C00004002000B6B28021C900714300F042FA41
:1019D00005006D1E8B480068C5628A48C5606808AE
:1019E0008849096888630421864801F01EF970BDA2
:1019F00070B5060001F020F804002000B6B2802186
:101A00000901714300F026FA05006D1E7E4800684A
:101A1000C5627D48C56068087B4909684863002144
:101A2000794801F002F970BD70B586B00500EDB2DD
:101A30002800012808D002280ED0714804007348FD
:101A40002060042006000DE06E4804008020C005E0
:101A500020600420060005E06B4804006C4820600C
:101A6000002006006B4860600020A0600020E0605D
:101A700000202061200001F0A3F8602002900020E7
:101A800003900020049000200590320002A920005D
:101A900001F0A7F900200090002001906946200085
:101AA00001F00BFB06B070BD10B50400E4B2002CD1
:101AB00003D0022C0BD005D30EE00421504801F0D6
:101AC0009BF809E004214F4801F096F804E000215A
:101AD0004D4801F091F8FFE710BD10B50400012258
:101AE00080218900A020C00500F00FFB10BD10B5BB
:101AF0000400002280218900A020C00500F005FB21
:101B000010BD38B504000D00E4B2002C11D0022C39
:101B100001D007D315E02A00D2B21021374800F0D7
:101B2000F4FA0EE02A00D2B22021344800F0EDFA97
:101B300007E02A00D2B280214900A020C00500F0B1
:101B4000E4FA31BD2C10024010B533483349086027
:101B500020203249C86100203049886001202F4987
:101B6000486102202D49086100202C498862072025
:101B70002A49C86200202949C86000202749086214
:101B80008020800025498861002024494862822005
:101B9000400022494860214801F0BEFA04002000BC
:101BA000C0B210BD00002110F0B583B005000C00DC
:101BB000170000224021114800F0A7FA002006007B
:101BC000FFB2BE4212D280204001009001232200C9
:101BD0002900124801F0EAFA69460871684600795E
:101BE000002803D16D1C641C761CE9E7012240210A
:101BF000024800F08AFA68460079FEBD00040050F1
:101C00003806002070060020A806002000140140BD
:101C100000080140FF03000000300140E005002003
:101C20009D2102000AD5F446524200F007F8012235
:101C3000D2071043604700009D2102000AD002D461
:101C4000491E9218FCD5C905100A1206524100D34C
:101C5000012A48417047F8B401684218436859089E
:101C6000511800918168DB0701D54B46C918009BCC
:101C70009A4202D10C30F2BC70471378521C0324F4
:101C800003261E4002D11678F61C521C1D090F2D8A
:101C900007D115780F35521C03E01778521C0F70CE
:101CA000491C761EF9D1002DE1D01678521C9B08F4
:101CB0001C40032C01D11478521C2302F3185C42FF
:101CC0000B19AD1CD3D01C785B1C0C70491C6D1E0D
:101CD000CDD0F8E780B5C0B2401CFFF7A1FF0249A4
:101CE00001F09EFC02BD00BF0000FA4180B5C0B209
:101CF000401CFFF795FF024901F092FC02BD00BFB6
:101D00000080BB4380B5C0B2401CFFF789FFFC21B7
:101D1000890501F085FC02BD0CB4012212060318EE
:101D2000DA4207D84B18DA4204D802000A43921864
:101D300002D288420CBC7047FCD08142FAE7FEE731
:101D4000944602000A43921808D0884206D1012224
:101D500012060018D042084600D8804262467047FA
:101D60000CB4012212060318DA4207D84B18DA42E3
:101D700004D802000A43921802D281420CBC704778
:101D8000FCD088420CBC704700180ED2010E7F397F
:101D90000BD449421F3105D4C0010122D2071043A0
:101DA000C84070470020401E704700207047FEE783
:101DB00080B5074901F08CFC064901F031FCFC219B
:101DC000890501F085FC01F00FFDC0B202BD00BF26
:101DD0000000FAC16F12033D80B5074901F078FC9D
:101DE000064901F01DFCFC21890501F071FC01F0A0
:101DF000FBFCC0B202BD00BF0080BBC30FB82E3BCE
:101E000080B5BF21090601F063FC8021C90501F0FE
:101E100007FCFC21890501F05BFC01F0E5FCC0B288
:101E200002BDF446002804D4494200F013F84042B1
:101E300060474042002905D45FD000F00BF84042D3
:101E400049426047494200F005F84942604703466D
:101E50000B43E6D40022030A8B420BD203098B42C8
:101E600019D243088B422ED2411A00D20146524168
:101E700010467047FF2209023FD012068B4205D35D
:101E8000121209028B4201D31212090203098B427A
:101E900019D300E0090AC3098B4201D3CB01C01A50
:101EA000524183098B4201D38B01C01A524143092D
:101EB0008B4201D34B01C01A524103098B4201D31B
:101EC0000B01C01A5241C3088B4201D3CB00C01A88
:101ED000524183088B4201D38B00C01A5241430800
:101EE0008B4201D34B00C01A5241884200D3401AA2
:101EF0005241CFD201461046704708B501F092FC1E
:101F000008BD11B581B0002401F08EFC040001F081
:101F10008BFC001B01998842F9D313BDF0B5020078
:101F20000023002400250868D840002800D1DDE007
:101F3000086801269E4006403400002C00D1D3E002
:101F40004868022802D0486812281BD1D808042605
:101F500070431018006A05000F201E007607760FE8
:101F600004277E43B040854308691E007607760F3C
:101F700004277E43B04028430500D8080426704358
:101F8000101805624868012808D04868022805D062
:101F90004868112802D0486812281CD190680500B2
:101FA00003201E0002277E43B0408543C8681E0000
:101FB00002277E43B0402843050095605068050025
:101FC00001209840854348680600F606F60F9E40BB
:101FD0002E43350055601068050003201E000227BF
:101FE0007E43B040854308798007800F1E0002279A
:101FF0007E43B040284305001560D06805000320EB
:102000001E0002277E43B040854388681E000227D9
:102010007E43B04028430500D5604868C00063D5C2
:102020004A480068012606434848066048489E081A
:1020300004277E43805905000F201E00B607B60F07
:1020400004277E43B0408543A020C005824201D1D1
:10205000002014E03F48824201D101200FE03E48B9
:10206000824201D102200AE03C48824201D1032091
:1020700005E03B48824201D1052000E006201E0019
:10208000B607B60F04277E43B0402843050030480A
:102090009E0804277E438551324800680500A54309
:1020A0004868C00300D525432E4805602E480068C7
:1020B0000500A5434868800300D525432A480560EC
:1020C0002A4800680500A5434868C00200D525439A
:1020D00026480560264800680500A5434868800238
:1020E00000D52543224805605B1C1CE7F0BD00B508
:1020F0000200136989B20B40002B02D001231800A3
:1021000001E000231800C0B200BD00B5D2B2002A21
:1021100002D089B2816101E089B2816200BD426969
:1021200089B24A404261704710B504001148006806
:10213000A4B22040002806D0A4B20E4804602000BB
:1021400080B201F083FC10BD00000000341002409A
:10215000080001400004005000080050000C00502E
:10216000001C005000040140040401400804014028
:102170000C0401401404014000B540B2002805D40D
:102180000121C206D20E91403A4A116000BDF0B55D
:1021900040B200281BD4384A40B283080424634369
:1021A000D258FF238407A40F08256C43A3409A4309
:1021B0008B01DBB28407A40F08256C43A3401343B3
:1021C0002D4A40B2840804256C43135120E02B4C67
:1021D00040B20207120F083A950804225543274AD5
:1021E00040B203071B0F083B9B0804267343D258D9
:1021F000FF238607B60F08277E43B3409A438B011F
:10220000DBB28607B60F08277E43B3401343635102
:10221000F0BD10B50400601E80214904884201D33E
:1022200001200EE0601E1649086003210020C04313
:10223000FFF7ADFF0020134908600720124908602E
:10224000002010BD70B504000D001600290020000C
:1022500040B2FFF79CFF70BD10B50400200040B2F3
:10226000FFF78AFF10BD10B504002000FFF7D1FF73
:1022700010BD000000E100E000E400E01CED00E023
:1022800014E000E018E000E010E000E070B582B07B
:10229000040000252078C0076BD5B44800680C21E5
:1022A0000140082909D0B14800680C2101400C29DF
:1022B0000CD1AE480068C00308D5AD480068800363
:1022C00057D56068002854D10120BDE260688021A4
:1022D0004902884207D1A64800688021490201438B
:1022E000A348016026E06068A021C90288420ED19F
:1022F0009F4800688021C90201439D4801609C48B5
:1023000000688021490201439948016012E0984821
:102310000068C549014096480160954800688021E1
:10232000490208400090009891480068BF49014068
:102330008F480160606800280DD001F075FA050033
:102340008B480068800314D401F06EFA401B6528A6
:10235000F6D3032078E201F067FA050084480068AC
:10236000800306D501F060FA401B6528F6D30320F0
:102370006AE22078800759D57C4800680C2101402A
:10238000042909D0794800680C2101400C2916D194
:1023900076480068C00312D475480068400704D529
:1023A000E068012801D001204EE2BA480068BA492D
:1023B0000140206900020843B649086036E0E06841
:1023C00000281FD06A48006809218843E16801435A
:1023D0006748016001F028FA050065480068400779
:1023E00006D401F021FA401B0328F6D303202BE288
:1023F000A8480068A8490140206900020843A5498F
:10240000086013E05A480068012188435849086071
:1024100001F00AFA050056480068400706D501F0A9
:1024200003FA401B0328F6D303200DE22078C006F0
:1024300000D49FE04D4800680C210140002957D18D
:102440004B480068800504D5E069002801D10120CF
:10245000FAE190480068E02109020140606A814287
:1024600018D2606A00F052FB002801D00120EBE195
:1024700088480068C5490140606A0843854908608A
:10248000844800680002000A216A09060143814865
:10249000016017E07F480068BC490140606A08435A
:1024A0007C4908607B4800680002000A216A09062E
:1024B000014378480160606A00F028FB002801D0E1
:1024C0000120C1E10120616A490B491C884080213B
:1024D00009024843AE49254A126812091207120F31
:1024E000895CC840AB490860032001F0B9FA41E0BB
:1024F000E069002826D01E48006880214900014379
:102500001B48016001F090F905001948006880053A
:1025100006D401F089F9401B0328F6D3032093E188
:102520005C48006899490140606A0843594908605D
:10253000584800680002000A216A0906014355480C
:10254000016017E00A480068C0490140084801607E
:1025500001F06AF905000648006880050AD501F017
:1025600063F9401B0328F6D303206DE10C100240F1
:1025700000100240207800072AD56069002813D097
:10258000B348006801210143B148016001F04CF9F2
:102590000500AF48006880071AD401F045F9401BD8
:1025A0000328F6D303204FE1A9480068012188439E
:1025B000A749086001F038F90500A54800688007C0
:1025C00006D501F031F9401B0328F6D303203BE187
:1025D0002078400700D497E000269E480068C0009D
:1025E00008D49C480068802149050143994801604E
:1025F0000120060098480068C00519D49648006874
:102600008021490001439448016001F00DF9050063
:1026100091480068C0050BD401F006F9401B6528FD
:10262000F6D3032010E100BFFFFFFEFFFFFFFBFF1B
:10263000A06880214900884207D185480068802130
:10264000490001438248016034E0A06800280CD1B1
:102650007F4800687D4901407D4801607C480068F2
:102660007E4901407A48016024E0A068A021C900A9
:10267000884213D1764800688021C900014374481C
:10268000016073480068802149000143704801607F
:1026900010E000BF04100240FFE0FFFF6C4800683C
:1026A0006A4901406A480160694800686B49014015
:1026B00067480160A06800280ED001F0B5F8050059
:1026C00063480068800516D401F0AEF8401B6449E9
:1026D0008842F5D30320B7E001F0A6F805005C4876
:1026E0000068800507D501F09FF8401B5C498842CF
:1026F000F5D30320A8E0F6B2012E05D155480068B5
:1027000058490140534801602078800644D5A069AB
:10271000002820D05448006801210143524801603C
:102720005248006801210143504801605048006848
:102730008021890101434E48016001F075F80500D0
:1027400049480068800727D401F06EF8401B032831
:10275000F6D3032078E044480068012188434249C9
:10276000086043480068AE4901404148016001F0FB
:102770005BF805003C48006880070DD501F054F86F
:10278000401B0328F6D303205EE000BFFF1FFFFFBE
:10279000AC47000864010020A06A002853D0A1487B
:1027A00000680C2101400C294BD0A06A022834D1CA
:1027B0009F4800689C4901409D48016001F034F841
:1027C00005009B480068800106D501F02DF8401BEC
:1027D0000328F6D3032037E092480068934901406C
:1027E000E06A0843216B0143606B08438D49086030
:1027F0008F4800688021490401438D48016001F041
:1028000013F805008A48006880011CD401F00CF818
:10281000401B0328F6D3032016E085480068824950
:1028200001408348016000F0FFFF05008048006818
:10283000800108D500F0F8FF401B0328F6D30320E1
:1028400002E0012000E0002076BD00BFFFFEFFFF98
:10285000501002403810024000700040FFFBFFFFA4
:1028600089130000FFFFFFEF081002403410024000
:102870002000014070B505000C0000266D4800687E
:102880000100C907C90FA1420FD26A48006801219F
:102890008843204367490860664800680100C9070B
:1028A000C90FA14201D00120B8E02878800707D5E0
:1028B0005C480068F0218843A968014359480160D9
:1028C0002878C0076CD56868022805D15848006888
:1028D000800319D40120A1E06868032805D1544879
:1028E0000068800110D4012098E06868012805D1B3
:1028F0004F480068400707D401208FE04C4800682B
:10290000800501D4012089E04648006803218843FE
:10291000696801434348016000F086FF060068686B
:1029200002280DD13F4800680C210140082937D00A
:1029300000F07AFF801B6F498842F3D303206DE0DB
:10294000686803280DD1374800680C2101400C2924
:1029500026D000F069FF801B66498842F3D303202C
:102960005CE0686801280DD12E4800680C21014008
:10297000042915D000F058FF801B5E498842F3D32C
:1029800003204BE0274800680C210140002907D0B4
:1029900000F04AFF801B57498842F3D303203DE0F3
:1029A000244800680100C907C90F8C420FD2214892
:1029B00000680121884320431E4908601D480068C3
:1029C0000100C907C90FA14201D0012026E02878E3
:1029D000400707D51348006847490140E8680843A5
:1029E000104908602878000708D50E480068434958
:1029F00001402869C00008430A49086000F01CF83B
:102A00003F49084A126812091207120F895CC84030
:102A10003C490860032001F023F8002070BD00004D
:102A2000FFDFFFFF0C100240FFFFFFFEFFFF02FF72
:102A30000010024000200240FCB50020009000245D
:102A4000002500260020019000272F4800680090F4
:102A500000980C210140042904D008290CD00C292D
:102A60000DD037E04B480068C00602D54A48070041
:102A700001E04A4807003BE04948070038E0494880
:102A80000099890C0907090F405C04000098800D2B
:102A90008007800F401C05001B480068C00306D556
:102AA0003F4860432900FFF7D5F9060010E0394898
:102AB0000068C00606D5384860432900FFF7CAF908
:102AC000060005E0354860432900FFF7C3F906001A
:102AD00037000DE034480068400B4007400F01907C
:102AE00001200199491C88408021090248430700C0
:102AF0003800F6BD89130000FFF8FFFFFFC7FFFF96
:102B0000AC470008640100200C10024010B5010021
:102B10000022002325480068F0240440002C27D11F
:102B200024480068C00006D523480068C02464011A
:102B30000440220012E01F4800688024640504431A
:102B40001C4804601C480068C02464010440220042
:102B500018480068194C044016480460C020400121
:102B6000824205D1C0200002814201D10120030030
:102B70000F4800680124A04318430D4C20600C4806
:102B800000680400E407E40F9C4201D0012000E04B
:102B9000002010BD0010024000093D000024F40098
:102BA00000127A00CC470008041002400C100240CA
:102BB000002002403810024000700040FFFFFFEF8D
:102BC00010B50400002C01D1012014E03520205C58
:102BD000002805D1002034216054200000F082FE3E
:102BE000022035216054211D206800F07FF901206A
:102BF00035216054002010BD38B504000D000022BE
:102C00002900206800F04AFA2068006A2249014041
:102C1000002905D1206800680121884321680860E7
:102C2000012035216054002032BD38B504000D006C
:102C30002800002806D004280BD0082810D00C2823
:102C400015D01BE02068C068022101432068C160E4
:102C500014E02068C068042101432068C1600DE0D1
:102C60002068C068082101432068C16006E0206830
:102C7000C068102101432068C160FFE701222900DC
:102C8000206800F00BFA20680068012101432068E9
:102C90000160002032BD00001111000010B50400D9
:102CA0002068006980071BD52068C068800717D599
:102CB0000220C043216808610120207520688069D6
:102CC0008007800F002803D0200000F0DDFE05E023
:102CD000200000F0DAFE200000F06BFE00202075DE
:102CE0002068006940071CD52068C068400718D5D7
:102CF0000420C04321680861022020752068806993
:102D0000C02189000140002903D0200000F0BCFE52
:102D100005E0200000F0B9FE200000F04AFE00208F
:102D200020752068006900071BD52068C06800076F
:102D300017D50820C0432168086104202075206849
:102D4000C0698007800F002803D0200000F09CFE9F
:102D500005E0200000F099FE200000F02AFE00208F
:102D6000207520680069C0061CD52068C068C006B0
:102D700018D51020C04321680861082020752068FC
:102D8000C069C02189000140002903D0200000F063
:102D90007BFE05E0200000F078FE200000F009FE38
:102DA0000020207520680069C0070AD52068C06827
:102DB000C00706D50120C04321680861200000F04B
:102DC00065FE2068006940060AD52068C068400694
:102DD00006D54020C04321680861200000F057FE5E
:102DE00010BD70B504000D0016003420205C0128D1
:102DF00001D1022076E001203421605402203521E7
:102E000060543000002806D004281BD0082832D097
:102E10000C2847D05FE02900206800F09EF8206869
:102E2000806908210143206881612068806904214C
:102E300088432168886120688069E96801432068C7
:102E4000816148E02900206800F0A8F820688069C6
:102E5000802109010143206881612068806922493D
:102E600001402068816120688069E96809020143A6
:102E7000206881612FE02900206800F0B4F8206804
:102E8000C069082101432068C1612068C06904212C
:102E900088432168C8612068C069E96801432068E7
:102EA000C16118E02900206800F0C1F82068C069FD
:102EB0008021090101432068C1612068C0690A4975
:102EC00001402068C1612068C069E96809020143C6
:102ED0002068C161FFE701203521605400203421C2
:102EE0006054002070BD0000FFFBFFFF00B5002212
:102EF00003681A008023DB05984205D05F4B984297
:102F000002D05F4B984201D1012300E00023DBB2E5
:102F1000002B04D070239A4313004A681A4380237D
:102F2000DB05984205D0554B984202D0544B98424D
:102F300001D1012300E00023DBB2002B05D01300F8
:102F4000504A1A401300CA681A4302608B68C36271
:102F50000B6883620123436100BD70B4002200232B
:102F60000024056A0126B5430562056A2B00456801
:102F70002C0085692A007025AA430325AA43150061
:102F80000A682A430225AB431D008B682B4344602B
:102F900082614D684563036270BC704770B4002263
:102FA00000230024056A1026B5430562056A2B003C
:102FB00045682C0085692A001500334A2A4015000F
:102FC000304A2A4015000A6812022A432025AB43E2
:102FD0001D008B681B012B43446082614D68856333
:102FE000036270BC704770B4002200230024056A9D
:102FF000264E2E400662056A2B0045682C00C569E6
:103000002A007025AA430325AA4315000A682A430B
:103010001D001F4B2B401D008B681B022B4344607F
:10302000C2614D68C563036270BC7047000070B434
:10303000002200230024056A164E2E400662056A0F
:103040002B0045682C00C5692A0015000E4A2A404D
:1030500015000C4A2A4015000A6812022A431D0076
:103060000D4B2B401D008B681B032B434460C2613A
:103070004D680564036270BC7047000000080140A1
:1030800000140140FFFCFFFFFF8FFFFFFFFEFFFF6B
:10309000FFFDFFFFFFEFFFFFFFDFFFFF30B4002367
:1030A00001248C402300046A9C430462046A1500D6
:1030B0008D402543056230BC704700B502003420C6
:1030C000105C012801D1022024E001203423D054D7
:1030D00002203523D0541068406870239843136849
:1030E0005860106840680B680343106843601068BC
:1030F00080688023984313689860106880684B68E4
:1031000003431068836001203523D054002034230A
:10311000D054002000BDFEE710B50400002C01D102
:1031200001203FE05120205C002805D100205021E3
:103130006054200000F07EFB022051216054206882
:10314000006840218843216808606068A1680143E5
:10315000E06808432169014360690843A16980224E
:10316000920011400143E0690843216A0143A06ACB
:10317000084321680860A069000C04210840616AC6
:10318000014320684160E06A216808612068C069E5
:10319000054901402068C16100206065012051217E
:1031A0006054002010BD0000FFF7FFFFF2B582B0B1
:1031B000040017001E00089D002069460880512069
:1031C000205C012804D05120205C222800D0A7E1F7
:1031D0000298002804D0002F02D0B6B2002E01D1F0
:1031E00001209EE15020205C012801D1022098E1BD
:1031F0000120502160545120205C012802D132204E
:103200005121605400206065A763A687E687029875
:103210002063A686E6860020A0640020E064A06A01
:103220008021890188420CD120680068BD49014095
:1032300020680160206800688021890101432068BE
:10324000016020680068400605D4206800684021BD
:10325000014320680160E06880210901884200D0B4
:103260008CE06068002807D06068822149008842AD
:103270000CD1E08E012809D1206B00882168C8603C
:10328000206B801C2063E08E401EE086E08E0028CC
:1032900020D1A06A80218901884206D12068006877
:1032A000802149010143206801602B000022012197
:1032B000200000F039F9002801D0032031E1206816
:1032C000C068A16B0880A06B801CA063E08F401ECB
:1032D000E087D7E0E08E002837D02B0000220221C3
:1032E000200000F021F9002801D0032019E1206B13
:1032F00000882168C860206B801C2063E08E401E1F
:10330000E086E08E00280BD1A06A802189018842E6
:1033100006D12068006880214901014320680160CE
:103320002B0000220121200000F0FEF8002801D02F
:103330000320F6E02068C068A16B0880A06B801CA9
:10334000A063E08F401EE087C4E76068002800D0DB
:1033500098E02B0000220121200000F0E5F8002871
:1033600001D00320DDE02068C068A16B0880A06B5D
:10337000801CA063E08F401EE08783E06068002827
:1033800007D060688221490088420BD1E08E012875
:1033900008D1206B411C216300782168C860E08E51
:1033A000401EE086E08E00281DD1A06A80218901A0
:1033B000884206D1206800688021490101432068C5
:1033C00001602B0000220121200000F0ADF8002850
:1033D00001D00320A5E02068C068A16B0870E08FD1
:1033E000401EE0874EE0E08E002835D02B00002202
:1033F0000221200000F098F8002801D0032090E07E
:10340000206B411C216300782168C860E08E401E5B
:10341000E086E08E00280BD1A06A802189018842D5
:1034200006D12068006880214901014320680160BD
:103430002B0000220121200000F076F8002801D0A6
:1034400003206EE0A06B411CA1632168C968017074
:10345000E08F401EE087C6E76068002812D12B008D
:1034600000220121200000F05FF8002801D0032095
:1034700057E0A06B411CA1632168C9680170E08F0F
:10348000401EE087A06A80218901884213D12B0069
:1034900000220121200000F047F8002805D0606DCF
:1034A00002210143616503203BE02068C068694652
:1034B0000880684600882B0001228021200000F04F
:1034C00033F8002805D0606D202101436165032099
:1034D00027E0012051216054A06A8021890188429F
:1034E00019D120688068C00615D5606D022101439E
:1034F0006165206800680B49014020680160206810
:10350000006880218901014320680160002050216A
:103510006054012005E0002050216054002000E0AC
:103520000220FEBDFFDFFFFFF4B504000F001D0009
:10353000002600F079F9060068460078002835D1A9
:10354000206880683840B84266D00020C043854279
:10355000F6D0002D04D000F067F9801B8542EFD231
:1035600020684068E021884321684860206800683E
:103570004021884321680860A06A8021890188422F
:103580000CD120680068254901402068016020684E
:1035900000688021890101432068016001205121D8
:1035A0006054002050216054032036E02068806879
:1035B0003840B84230D10020C0438542F6D0002DBB
:1035C00004D000F031F9801B8542EFD220684068BA
:1035D000E0218843216848602068006840218843D2
:1035E00021680860A06A8021890188420CD1206886
:1035F00000680A4901402068016020680068802155
:10360000890101432068016001205121605400209C
:1036100050216054032000E00020F2BDFFDFFFFFD7
:1036200030B405004D400122D20715404B18041854
:10363000240E2ED01B0E32D0FF2C34D0FF2B3AD0CC
:10364000E4180002090210431143000A090A9446D3
:10365000C2B24A43000AC3B24B43000A4843110AAC
:103660005B181A43D2B2190A091801D44918641E0A
:10367000080A7F3C23DBFE2C08DAE4050906114327
:10368000634699416041284330BC7047FF20C00524
:10369000F9E728001B0EFF2BF6D1D043F4E72800F2
:1036A000FF2CF1D1F9E74002F7D1FF2B01D14902FC
:1036B000F3D1E005E7E7D8054902E4D0EDE743029E
:1036C0000020641CDFD15B129B1CDCD9D805DAE733
:1036D0000122D20703004B402ED4431A01D2C01A54
:1036E000C91830B44B180418240E1B0E22D0FF2C1E
:1036F00020D0E31A182B1DDC09021143C40D641EEF
:103700000002104394461925ED1A0A00AA40D94038
:10371000451801D36D08A41CE405D209280A2D061A
:103720002A436546AA41604103181B0EFF2B01D3B3
:10373000C00DC00530BC7047514001E05140CCE79E
:10374000431A03D2C01AC9185040514030B44B1824
:10375000090211430418240E1B0E40D0FF2C3AD04E
:1037600025009D410BD31ED8C50D4002401A0BD336
:10377000ED050100400AC90591416841DAE7C50D30
:1037800040024918401AD5D001214008491C0018B0
:10379000FCD58C4204D36D1A000AED054019C9E727
:1037A000E8051040C6E7182DC4DCAC1C0D00E14054
:1037B000E5414D40012D4941C40D00021043451A19
:1037C00001D46D199543641EE405280A2D06954120
:1037D000604130BC7047FF2BACD1D843AAE72442EC
:1037E000A8D10020A6E7FEE70122D2070118090EA2
:1037F0007F3910D449421F310FD4001805D2C001BF
:103800001043C84000D5D0437047C0011043C840A2
:1038100005D440427047002070470042F3D51000A5
:103820007047FEE77047FEE701480068704700BF39
:103830000007002010B586B0040020687B4988424C
:103840004ED17B48006801210143794801607848E6
:1038500000680100C907C90F00910098744800680A
:103860000121014372480160714800680100C907E5
:10387000C90F009100986E480068012101436C480F
:1038800001606B4800680100C907C90F00910098EA
:103890006848006880214901014366480160202092
:1038A000019002200290002003900120049000204B
:1038B000059001A9A020C005FEF730FB4020019033
:1038C0000020059001A9A020C005FEF727FB80205D
:1038D00001900020059001A9A020C005FEF71EFB65
:1038E00006B010BD10B586B0040020685249884269
:1038F0001CD150480068202101434E4801608020BF
:1039000000900220019000200290002003900020EF
:10391000049069464948FEF701FB00220421162065
:10392000FEF790FC1620FEF797FC40E0206880210F
:10393000C90588421CD14248006801210143404822
:1039400001600820009002200190002002900020D9
:1039500003900220049069463A48FEF7DFFA0022FD
:1039600004210F20FEF76EFC0F20FEF775FC1EE011
:103970002068354988421AD12E4800680421014345
:103980002C4801608020C0000090012001900020A0
:1039900002900020039069462A48FEF7BFFA0022F1
:1039A00003211420FEF74EFC1420FEF755FC06B050
:1039B00010BD10B5040020681F4988420AD1207D3F
:1039C000022807D1002000F01BF9082802D00020AF
:1039D00000F0D2FA20688021C90588420AD1207DF2
:1039E000022807D1012000F00BF9082802D001209D
:1039F00000F0C2FA20681449884216D1207D0128BF
:103A000013D18021C9000F48FEF789FB022000F086
:103A1000F7F8082809D08021C9000A48FEF767FB9B
:103A2000012802D1022000F0A7FA10BD00300140A9
:103A30002C100240341002400014014000080050D5
:103A400038100240000400500008014010B5040086
:103A5000A4B28020C000844201D100F070F810BDF3
:103A600010B5040007480068FA218900FEF7F2F952
:103A7000FEF7F9FB002221000020C043FEF7E2FB25
:103A8000002010BD640100207047704770477047E8
:103A900010B504008248006800280AD080480068F9
:103AA0008068002805D020007D490968896888471A
:103AB00002E0894800F016F810BD10B504007848FF
:103AC000006800280AD076480068C068002805D041
:103AD000200073490968C968884702E08A4800F0F5
:103AE00001F810BD10B504006D48006800280DD025
:103AF0006B480068F0214058002807D0200080B2B1
:103B000067490968F0228958884700E0FEE710BD40
:103B100038B505000C009548006800280AD0934885
:103B200000680068002805D02000904909680968ED
:103B3000884703E080200001FFF7D4FF31BD80B546
:103B400057480068002809D0554800684069002897
:103B500004D0534800684069804702E08F48FFF76F
:103B6000C1FF01BD38B5040000254D48006800289C
:103B70000CD04B4800688069002807D02000C0B2F4
:103B80004749096889698847050002E08448FFF7CA
:103B9000A9FF280080B232BD38B504000025404896
:103BA000006800280CD03E480068C069002807D093
:103BB0002000C0B23A490968C9698847050002E097
:103BC0007848FFF78FFF280080B232BD38B5040077
:103BD00000253348006800280CD031480068006A8E
:103BE000002807D02000C0B22D490968096A88471B
:103BF000050002E07948FFF775FF280080B232BD6A
:103C000038B5040008252648006800280CD0244850
:103C10000068406A002807D02000C0B22049096827
:103C2000496A8847050002E07C48FFF75BFF2800EF
:103C3000C0B232BD38B5040000251948006800281C
:103C40000CD017480068006B002807D02000C0B2D5
:103C500013490968096B8847050002E09748FFF798
:103C600041FF280080B232BD38B5040000250C4861
:103C7000006800280CD00A480068406B002807D074
:103C80002000C0B206490968496B8847050002E078
:103C90009A48FFF727FF280080B232BD00000000DD
:103CA0000407002038B504000025304800680028CB
:103CB0000CD02E480068806B002807D02000C0B2CE
:103CC0002A490968896B8847050002E09B48FFF78D
:103CD00009FF280032BD00000208000010B50400F2
:103CE0002248006800280BD020480068C06B0028DC
:103CF00006D02000C0B21D490968C96B884702E0A0
:103D00009C48FFF7EFFE10BD0308000010B504004B
:103D10001648006800280BD014480068006C002882
:103D200006D02000C0B211490968096C884703E039
:103D300081200001FFF7D6FE10BD000038B5050058
:103D40000C000A48006800280CD008480068406C45
:103D5000002807D021002800C0B2044A1268526C23
:103D6000904702E09A48FFF7BDFE31BD04070020EE
:103D700010B504009748006800280BD095480068EB
:103D8000806C002806D02000C0B292490968896C76
:103D9000884702E09048FFF7A5FE10BD0508000027
:103DA000060800000708000038B505000C00894827
:103DB000006800280DD087480068406D002808D0B2
:103DC0002100C9B22800C0B2824A1268526D9047E1
:103DD00002E09048FFF786FE31BD000008080000B1
:103DE00070B504000E0000257A48006800280ED047
:103DF00078480068806D002809D0310089B2200021
:103E0000C0B2744A1268926D9047050002E0824881
:103E1000FFF768FE2800C0B270BD0000090800006E
:103E200070B504000E0000256A48006800280ED016
:103E300068480068C06D002809D0310089B22000B0
:103E4000C0B2644A1268D26D9047050002E0734820
:103E5000FFF748FE2800C0B270BD000038B505006D
:103E60000C005C48006800280CD05A480068006EBE
:103E7000002807D021002800C0B2564A1268126EEE
:103E8000904702E06648FFF72DFE31BD38B50500CA
:103E90000C005048006800280CD04E480068406E66
:103EA000002807D021002800C0B24A4A1268526E8A
:103EB000904702E05B48FFF715FE31BD0C0800009B
:103EC00070B504000E0000254248006800280ED09E
:103ED00040480068806E002809D0310089B2200077
:103EE000C0B23C4A1268926E9047050002E04E480C
:103EF000FFF7F8FD2800C0B270BD00000D080000FB
:103F000070B504000E0000253248006800280ED06D
:103F100030480068C06E002809D0310089B2200006
:103F2000C0B22C4A1268D26E9047050002E04F489A
:103F3000FFF7D8FD2800C0B270BD00000E080000D9
:103F400038B5040000252348006800280CD021481B
:103F50000068006F002807D02000C0B21D49096822
:103F6000096F8847050002E04148FFF7BBFD2800C4
:103F7000C0B232BD0F08000010B50400154800683B
:103F800000280BD013480068406F002806D020009E
:103F9000C0B210490968496F884702E03548FFF709
:103FA000A1FD10BD10B504000A48006800280BD020
:103FB00008480068806F002806D02000C0B205497C
:103FC0000968896F884702E02B48FFF78BFD10BD19
:103FD00011080000040700201208000038B5040092
:103FE00000252648006800280ED024480068882153
:103FF0004058002808D02000C0B220490968882213
:1040000089588847050002E01D48FFF76BFD28002E
:1040100080B232BD15080000160800001708000025
:1040200018080000190800001A08000070B5040004
:104030000E00002511480068002810D00F480068C5
:10404000A021405800280AD03100C9B22000C0B2D7
:104050000A4A1268A023D2589047050002E0094896
:10406000FFF740FD2800C0B270BD00001B08000033
:104070001C0800001D0800001E08000004070020A6
:10408000220800002808000070B505000C00384820
:1040900005800026ADB23748854204D1FCF746FAC8
:1040A000354908604AE0ADB2012D04D100F070F846
:1040B0003149086042E0ADB23048854204D100F099
:1040C00069F82D49086039E0ADB2C220400185424F
:1040D00004D100F061F8284908602FE0ADB2DC2D72
:1040E00004D100F05BF82449086027E0ADB2244811
:1040F000854203D0ADB22348854204D100F050F888
:104100001D4908601AE0ADB21F48854203D0ADB228
:104110001E48854204D100F045F8174908600DE0BB
:10412000ADB2F02D02D0ADB2FA2D04D100F03CF8C2
:104130001149086002E000200F4908600E4800683D
:10414000002812D00C480068A221490040580028DD
:104150000BD0E4B2002C08D02000C0B20649096898
:10416000A22252008958884706003000C0B270BDB4
:104170000C0700204A190000040700203E18000028
:10418000461900004819000050190000521900009B
:1041900000207047002070470020704700207047C3
:1041A000002070470020704700207047F8B500F0ED
:1041B000CFF900F0DFF90321D448FFF765FF0021B4
:1041C000D248FFF7A5FC0021D048FFF7A1FC002151
:1041D000CE48FFF79DFCD748FFF76FFCD648FFF7A6
:1041E00057FC0020FFF75EFD050029000020FFF7C7
:1041F00035FE0120FFF756FD050029000120FFF7DD
:104200002DFE0220FFF74EFD050029000220FFF7DA
:1042100025FEC82109010020FFF790FD0020FFF7CF
:10422000C1FE0020FFF73EFD0500C82000018542C9
:104230000AD129000020FFF729FE29000120FFF7FD
:104240007DFD0120FFF7AEFE0120FFF72BFD0500ED
:10425000C8200001854206D129000220FFF76EFD2B
:104260000220FFF79FFE0220FFF71CFD0500FA2049
:104270008000FDF746FEC8200001854211D10020D4
:10428000FFF72CFD0120FFF729FD0220FFF726FD97
:104290000020FFF787FE0120FFF784FE0220FFF7D2
:1042A00081FEFA208000FDF72CFEA4490020FFF7D4
:1042B00045FD0020FFF776FE0020FFF7F3FC050028
:1042C0009E48854206D129000120FFF737FD0120D5
:1042D000FFF768FE0120FFF7E5FC050097488542DF
:1042E00006D129000220FFF729FD0220FFF75AFE20
:1042F0000220FFF7D7FC0500FA208000FDF701FE41
:104300008E48854215D129000220FFF7BFFD00200D
:10431000FFF7E4FC0120FFF7E1FC0220FFF7DEFCE1
:104320000020FFF73FFE0120FFF73CFE0220FFF7D1
:1043300039FEFA208000FDF7E4FD0020FFF7E6FCDF
:104340000220FFF7E3FC0020FFF72CFE0220FFF71E
:1043500029FEFA208000FDF7D4FD01210020FFF79F
:1043600023FD0020FFF766FC04000020FFF714FC8B
:10437000A042FAD172482418210089B20120FFF727
:104380009FFD01210120FFF70FFD0120FFF704FC35
:10439000A042FAD16A482418210089B20220FFF70E
:1043A0008FFD01210220FFF7FFFC0220FFF7F4FB45
:1043B000A042FAD16348FDF7A4FD0120FFF7C0FD3C
:1043C0000120FFF7EFFD0020FFF7D2FC0220FFF7EE
:1043D000CFFC0020FFF7E6FD0220FFF7E3FD002001
:1043E000FFF77CFC0120FFF779FC0220FFF776FC49
:1043F0000020FFF7D7FD0120FFF7D4FD0220FFF7D3
:10440000D1FD0020FFF7AEFB07000020FFF7DEFB29
:1044100006000020FFF70EFC04000020FFF724FC3C
:10442000009003210120FFF701FE610889B20120FD
:10443000FFF746FD0098410889B20120FFF760FDB3
:10444000BFB238000221FDF702FD010089B2012050
:10445000FFF7C6FCB6B230000221FDF7F8FC010000
:1044600089B20120FFF7DCFC00210220FFF7DEFD0E
:10447000210989B20220FFF723FD0098010989B2C2
:104480000220FFF73DFDBFB238001021FDF7DFFC31
:10449000010089B20220FFF7A3FCB6B23000102160
:1044A000FDF7D5FC010089B20220FFF7B9FC2349D2
:1044B0000020FFF743FCC821C9000120FFF73EFCA4
:1044C000C721C9430220FFF739FC0020FFF76AFD2E
:1044D0000120FFF767FD0220FFF764FDC8210901F5
:1044E0000020FFF72BFC18490120FFF727FCC8210B
:1044F0000220FFF723FC0020FFF754FD0120FFF707
:1045000051FD0220FFF74EFDD1E700004A190000DF
:1045100010B50020FFF762FD04000120FFF75EFDEB
:1045200004000220FFF75AFD040010BD00B5074942
:104530000880FEE7114500082D45000880F3FFFFC5
:10454000C0FEFFFFB80B0000C0F9FFFF0A07002004
:1045500080B5064800680221014304480160032039
:10456000FFF77EFA00F004F8002002BD00200240B0
:104570007047FEE700B593B01F48006880214905E9
:1045800001431D4801601D4800681D49014080200D
:104590000001084319490860022005900020069098
:1045A0000120089002200F90002010908020C0026F
:1045B00011908020C00312901020099005A8FDF7EB
:1045C00065FE002802D00020FFF7B0FF0F2000900A
:1045D000032001900020029000200390002004900E
:1045E00001216846FEF746F9002802D00120FFF7B6
:1045F0009DFF13B000BD00BF3810024000700040A6
:10460000FFE7FFFF16480068802149000143144876
:1046100001601448006814490140124801601048C4
:104620000068124901400E480160114800680121EC
:1046300088430F4908600A4800680E49014008484D
:104640000160084800680C490140064801600020EC
:104650000A49086080200005094908607047000089
:10466000001002400C1002400C40FF88F6FFF6FEDE
:1046700008100240FFFFFBFFFFFF02FF1010024087
:1046800008ED00E0704700B5FEE77047704780B561
:1046900000F01EF801BD80B58020C000FDF744FD8C
:1046A00001BD80B50748FEF7F9FA01BD80B506489F
:1046B000FEF7F4FA01BD80B50448FEF7EFFA01BD3C
:1046C000000000007006002038060020A806002028
:1046D00002480068401C014908607047000700203C
:1046E00070B40121002213E00468001D0C4202D0C6
:1046F0004D466D1E64192260241D1B1F042BFAD227
:1047000025009E0701D52280AD1C0B4000D02A70E9
:104710000368001D002BE7D170BC704710B5074936
:1047200079441831064C7C44163404E0081D0A68AC
:10473000891888470100A142F8D110BD0800000087
:10474000240000009DFFFFFFAC0100006805002071
:104750000000000003D5FFFFA80000008601000054
:104760000000002000F00BF8002801D0FFF7D6FF72
:10477000002000BF00BFFFF719FD00F002F8012084
:10478000704780B500F002F801BDFEE707463846E5
:1047900000F002F8FBE7FEE780B500BF00BF024A69
:1047A00011001820ABBEFBE726000200000000004D
:1047B00000000000010203040607080901488047C1
:1047C0000148004705460008D947000803040608C9
:1047D0000C1018203000000000BF00BF00BF00BF59
:1047E000FFF7C0FFFEE7FEE7FEE7FEE7FEE7FEE7B6
:1047F000FEE7FEE7FEE7FEE7FEE7FEE7FEE7FEE791
:10480000100BF903000801080008C1000008C704E4
:1048100012000110077D0E00086D040008EB041261
:10482000F904100307050008270412310412450497
:1048300012530412670412E10412F104131106402A
:104840001104100385070008354C127504100B2F56
:10485000090008CB0A0008490B0008A30412D10480
:104860001003310C0008A5041003E5130008DD084F
:1048700012CD7012DD0412ED04131902301104126E
:10488000DB04120740121904222798110443150B68
:1048900098A101F3012D0714E101F301610524F34F
:1048A0000D5B0E3812919892D138127B0CF30D17D4
:1048B00005341287A0127DF0F305810428000280E0
:0348C000841E0053
:04000005080047D9CF
:00000001FF
