:020000040800F2
:100000007005002075470008ED450008EF45000821
:10001000F1450008F3450008F54500080000000020
:10002000000000000000000000000000F74500088C
:10003000F945000800000000FB450008FD450008E8
:100040009147000895470008994700089D47000818
:10005000A1470008A5470008A9470008AD470008C8
:10006000B1470008B5470008B9470008BD47000878
:10007000C1470008C5470008C9470008CD47000828
:10008000D1470008D5470008D9470008DD470008D8
:10009000E1470008E5470008E9470008ED47000888
:1000A000F14700082D460008F5470008F947000809
:1000B000194600082346000800000000FD4700081C
:1000C000014800080000000000000000054800088A
:1000D00000000000094800080D4800081148000809
:1000E0000546000815480008000000000000000058
:1000F0000000000000000000000000000000000000
:1001000000000000000000000000000000000000EF
:100110000000000000000000194800081D48000809
:1001200000000000000000000000000000000000CF
:1001300000000000000000000000000000000000BF
:100140002148000825480008000000002948000850
:100150002D48000831480008354800083948000893
:100160003D48000841480008000000000000000071
:10017000000000000000000000000000000000007F
:100180000000000045480008DFF8481D086070477F
:10019000DFF88C1D0860704710B50400A82120000E
:1001A000C0B200F0AAFF10BD10B50400B8212000B5
:1001B000C0B200F0A2FF10BD2DE9F04704000D0011
:1001C0005FF00008DFF8100D0078001BB0F10109A6
:1001D0005FF0000A0020DFF8501D08705FFA8AFA0D
:1001E000BAF1000F03D001F0F3FC0020824600209A
:1001F0000600DFF8E40C0078864223D20020DFF806
:100200002C1D88550020DFF8241D3144C8700020C3
:10021000DFF8181D314488710020DFF8101D3144CB
:1002200048720020DFF8801D3144C8700020DFF8DC
:10023000781D314488710020DFF86C1D314448720C
:10024000761CD6E72800012808D0022811D0032800
:1002500004D018280DD019280BD015E055F0200037
:10026000DFF8C81C5FFA89F901F80900032080460D
:1002700014E055F02000DFF8B41C5FFA89F9494416
:10028000C8700220804609E055F02000DFF89C1C71
:100290005FFA89F9494488710120804601F096FC93
:1002A00001208246DFF8800C0078002892D15FFAA6
:1002B00088F8D8F103000600042E0FD2DFF8E80C0E
:1002C000032101FB06F10144DFF8600C032202FB6D
:1002D00006F2104401F04AFC761CEDE7DFF8C80C8A
:1002E0005FFA89F94844C078DFF8BC1C5FFA89F9E5
:1002F00049448979090251EA0040DFF8AC1C5FFAF1
:1003000089F94944497A0843070001F061FC380043
:10031000BDE8F0872DE9F0410400DFF8BC0B007860
:10032000001B471E5FF000080020DFF8FC1B087070
:100330005FFA88F8B8F1000F03D001F049FC002003
:10034000804600200500DFF8900B0078854219D226
:100350000020DFF8D81B48550020DFF8D01B2944C7
:10036000C8700020DFF8C41B294488710020DFF822
:10037000381C2944C8700020DFF82C1C29448871DF
:100380006D1CE0E7D020DFF8A41BFFB2C85501F0D8
:100390001DFC01208046DFF8900B00780028C3D1B7
:1003A00000200500032D0FD2DFF8FC0B032101FB19
:1003B00005F10144DFF8740B032202FB05F210443F
:1003C00001F0D4FB6D1CEDE7DFF8DC0BFFB2384425
:1003D000C078DFF8D41BFFB23944897951EA002094
:1003E000060001F0F5FB300080B2BDE8F08110B5E9
:1003F000040000212000C0B200F07FFE10BD2DE9F6
:10040000F04704000D0016005FF00008DFF8C80A8E
:100410000078001BB0F101095FF0000A0020DFF84E
:10042000081B08705FFA8AFABAF1000F03D001F0D6
:10043000CFFB0020824600200700DFF89C0A0078EE
:10044000874214D20020DFF8E41AC8550020DFF8F4
:10045000DC1A3944C8700020DFF8D01A394488719A
:100460000020DFF8C81A394448727F1CE5E72800ED
:10047000012806D002281BD0032802D0182817D044
:1004800026E0DFF8A80A5FFA89F900F80950300C75
:10049000DFF8981A5FFA89F94944C870300ADFF822
:1004A0008C1A5FFA89F9494488710320804617E065
:1004B000DFF8780A5FFA89F94844C570300ADFF836
:1004C0006C1A5FFA89F9494488710220804607E076
:1004D000DFF8580A5FFA89F948448571012080469F
:1004E000DFF8480A5FFA89F94844467201F06EFB6A
:1004F00001208246DFF8300A007800288ED15FFAAA
:1005000088F8D8F103000700042F0FD2DFF8980A0B
:10051000032101FB07F10144DFF8100A032202FB6B
:1005200007F2104401F022FB7F1CEDE701F050FBC5
:10053000BDE8F08710B50400DFF84C0D0088C0B2AC
:1005400001F048FB01F0C2FC002803D04FF400404A
:1005500000F0B0FDDFF8300D0088C0B201F027FCDC
:10056000DFF8240D0088C0B201F07BFC012001F00F
:1005700027FB002C06D1DFF8100D0088C0B200F078
:1005800087FE06E02100DFF8000D0088C0B200F011
:10059000F2FDDFF8F40C0088C0B2FFF7FDFDDFF8D4
:1005A000E80C0088C0B2FFF7B5FEDFF8DC0C00886D
:1005B000401CDFF8D41C088010BDDFF8D01CC0B28E
:1005C000282250430844008B704738B52DED028B2C
:1005D00004000D0029002000C0B2FFF7EDFD08EE79
:1005E000100A280001280AD0032808D0092811D0B1
:1005F0000F281FD010281DD0132813D022E018EE8A
:10060000100A00F04BFD00EE100AB8EEC00AF0EE42
:10061000408A1BE018EE100AC0B201F0C5FCF0EEF3
:10062000408A13E018EE100AC0B201F0CBFCF0EEE5
:10063000408A0BE018EE100AC0B201F0D1FCF0EED7
:10064000408A03E0B8EE480AF0EE408AB0EE680A4D
:10065000BDEC028B31BDDFF8341CC0B22822504300
:100660000844008C7047DFF8241CC0B22822504395
:100670000844408B7047DFF8141CC0B22822504356
:10068000084490F824007047DFF8001CC0B228220C
:100690005043084490F8230070475FF4853070475A
:1006A000DFF8000D704710B5040003212000C0B230
:1006B000FFF782FD00F0F2FC10BDDFF8D01BC0B2E6
:1006C000282250430844808B7047DFF8C01BC0B21B
:1006D000282250430844C08B7047DFF8FC0700789D
:1006E000704710B5040001212000C0B2FFF764FD7F
:1006F00000F0D4FC10BD70B5040016212000C0B27B
:10070000FFF75AFD10F0070050F008000600F6B29F
:10071000082E07D015D30A2E0AD006D30C2E0DD0E2
:1007200009D30EE0002005000DE0012005000AE0DD
:100730000220050007E00320050004E00420050076
:1007400001E0FE2005002800C0B270BDDFF83C1BB0
:10075000C0B228225043084490F82500704710B5D5
:10076000040000212000C0B200F011F810BD38B51F
:10077000040003212000C0B2FFF71EFD00F08EFC34
:10078000050029002000C0B200F001F831BDF8B525
:1007900004000D00DFF8F40AE4B2282101FB04F1A3
:1007A000084490F82400082803D02000C0B200F0CC
:1007B00054F801212000C0B2FFF7FEFC00F06EFCEF
:1007C000DFF8C81AE4B2282202FB04F211444860A0
:1007D000DFF8B80AE4B2282101FB04F108444068BC
:1007E000281A0700002F0AD4DFF8A00AE4B2282153
:1007F00001FB04F108444761012006000AE0784249
:10080000DFF8881AE4B2282202FB04F2114448619E
:1008100000200600002F1FD00120DFF8701AE4B27C
:10082000282202FB04F2114481F822003100C9B2EF
:100830002000C0B200F06DFADFF8500AE4B22821BF
:1008400001FB04F1084441692000C0B200F0AEFB96
:100850002000C0B200F0F4FEF1BD10B50400DFF8D6
:100860002C0AE4B2282101FB04F1084490F8250089
:1008700000282BD12000C0B201F0DAFA0820DFF8FE
:100880000C1AE4B2282202FB04F2114481F824007D
:100890000320DFF8F819E4B2282202FB04F2114425
:1008A00081F822007FF00040DFF8E019E4B228224E
:1008B00002FB04F2114448610020DFF8D019E4B2D1
:1008C000282202FB04F21144088403E02000C0B295
:1008D00000F001F810BD10B504002000C0B201F016
:1008E000A7FA2000C0B2FFF757FC0820DFF89C19D8
:1008F000E4B2282202FB04F2114481F82400032010
:10090000DFF88819E4B2282202FB04F2114481F8CE
:1009100022007FF00040DFF87419E4B2282202FBC5
:1009200004F2114448610020DFF86019E4B2282283
:1009300002FB04F21144088410BD70B504000D00E0
:100940001600DFF84809E4B2282101FB04F108444D
:1009500090F82400082803D02000C0B2FFF77DFFE4
:10096000002E2FD0DFF82409E4B2282101FB04F186
:10097000084446610120DFF81419E4B2282202FB82
:1009800004F2114481F8220001212000C0B2FFF7D7
:1009900013FC00F083FBDFF8F418E4B2282202FB1A
:1009A00004F2114448602900C9B22000C0B200F02E
:1009B000B0F931002000C0B200F0F8FA2000C0B257
:1009C00000F03EFE70BDDFF8C0080088704710B52B
:1009D000040019212000C0B2FFF7EEFB80B210BD69
:1009E00010B504002000C0B201F03BFA10BD10B5F4
:1009F00004002000C0B201F03EFA10BD10B5002086
:100A000004002000DFF8D0140978C0B2884213D265
:100A10002000C0B2FFF75FFF2000C0B2FFF7E7FF82
:100A2000012001F0CDF82000C0B201F01AFA012037
:100A300001F0C6F8641CE4E710BD38B504000D00F1
:100A4000DFF84808E4B2282101FB04F1084490F8DB
:100A50002400082803D02000C0B2FFF7FEFE2900C2
:100A6000C9B22000C0B200F054F90020DFF81C1811
:100A7000E4B2282202FB04F2114481F82200200093
:100A8000C0B200F0DDFD31BDF8B504000D00EDB2DF
:100A9000002D05D0022D09D005D3032D09D00BE080
:100AA000082007000AE00920070007E00A200700E5
:100AB00004E00B20070001E00C2007002000C0B27A
:100AC000FFF709FF16212000C0B2FFF775FB10F0F9
:100AD000F8000600F6B2FFB257EA0602162120001F
:100AE000C0B2FFF78CFC002201212000C0B2FFF74A
:100AF00086FC0120F2BD10B40200002089B200295A
:100B00001FD0DFF88837D2B2282404FB02F4234434
:100B100093F82430082B0AD0DFF87037D2B228249B
:100B200004FB02F4234493F82230002B09D1DFF8B0
:100B30005C37D2B2282404FB02F423441983012336
:100B40001800C0B210BC70472DE9F0412DED028BAA
:100B500004000D00B0EE408A0127B5EE408AF1EEA8
:100B600010FA06D5012D04D0032D02D00020070075
:100B7000A0E02800012838D002280AD0032834D069
:100B800009285CD00F287AD0102878D0132866D096
:100B900085E0B5EE408AF1EE10FA1ED09FEDC70A4F
:100BA000B4EE408AF1EE10FA14DA5FF00108162173
:100BB0000020FFF701FB10F00700D0F1070018FA42
:100BC00000F000EE100AB8EEC00AB4EE408AF1EE72
:100BD00010FA02D50020070006E0BCEEC80A10EEAD
:100BE000100AC005C00D06005BE09FEDCB0AB4EE15
:100BF000408AF1EE10FA1FDB9FEDC80AB4EE408A7E
:100C0000F1EE10FA18D5B5EE408AF1EE10FA07DBD6
:100C1000BCEEC80A10EE100A8002800A06000DE041
:100C2000B1EE480ABCEEC00A10EE100A8002800A3B
:100C3000D0F58000060001E00020070031E09FEDC4
:100C4000B90AB4EE408AF1EE10FA02DB0020070088
:100C500004E0B0EE480A01F0CBF9060021E09FED78
:100C6000D00AB4EE408AF1EE10FA02DB0020070051
:100C700004E0B0EE480A01F0CFF9060011E09FED64
:100C8000C90AB4EE408AF1EE10FA02DB0020070038
:100C900004E0B0EE480A01F0D3F9060001E00020BC
:100CA0000700FFB2002F05D0320029002000C0B29B
:100CB000FFF7A5FB3800C0B2BDEC028BBDE8F081A8
:100CC00010B40200002089B200291FD0DFF8BC3523
:100CD000D2B2282404FB02F4234493F82430082BD6
:100CE0000AD0DFF8A835D2B2282404FB02F423444A
:100CF00093F82230002B09D1DFF89035D2B22824A6
:100D000004FB02F42344598301231800C0B210BC31
:100D1000704738B504000D00DFF87005E4B22821F3
:100D200001FB04F1084490F8240008280ED1DFF8F4
:100D30005C05E4B2282101FB04F1084480F823504B
:100D40002900C9B22000C0B201F09FF831BDF8B54A
:100D500004000D0001212000C0B2FFF72DFA00F0C1
:100D60009DF9461B002E03D4B002800A070005E05F
:100D700070428002800AD0F5800007003A0001210D
:100D80002000C0B2FFF73BFBF1BD0100C9B204294E
:100D900008DA0020DFF8F0241080DFF8000E017080
:100DA000012000E00020704770B504000D00002D08
:100DB00003D4A802800A060005E068428002800A87
:100DC000D0F580000600320003212000C0B2FFF7FA
:100DD00016FB70BD30B40200002089B2022930DB5E
:100DE00089B242F2117399422BDA0B00DFF8B04D51
:100DF000D2B2282505FB02F52C44E48B9BB2A3421A
:100E00001FD3DFF89C3DD2B2282404FB02F4234414
:100E100093F82430082B0AD0DFF8843DD2B228247E
:100E200004FB02F4234493F82230002B09D1DFF8AD
:100E3000703DD2B2282404FB02F423449983012399
:100E40001800C0B230BC704710B40200002089B254
:100E5000022930DB89B242F2117399422BDADFF8B2
:100E6000403DD2B2282404FB02F423449B8B0C00A7
:100E7000A4B2A3421FD3DFF8283DD2B2282404FB3A
:100E800002F4234493F82430082B0AD0DFF8103DF5
:100E9000D2B2282404FB02F4234493F82230002B1E
:100EA00009D1DFF8FC3CD2B2282404FB02F423442D
:100EB000D98301231800C0B210BC70470180FF43E2
:100EC000DFF8DC2CC0B2282303FB00F31A4482F8BD
:100ED00025107047280700203A07002010B40100B1
:100EE0000020DFF8BC2CC9B2282303FB01F31A440D
:100EF00092F82420082A0BD00222DFF8A43CC9B2C1
:100F0000282404FB01F4234483F82220012210004A
:100F1000C0B210BC70470000000000CAF9FFFF49D2
:100F20002407002001007A453B0700200C07002021
:100F300010B504002000C0B2FFF79DFB0828F9D1CE
:100F400010BD38B504000D00ADB2022D01DA02204B
:100F50000500ADB242F21170854202DB42F2107020
:100F60000500CA48E4B2282101FB04F108440584C5
:100F7000E4B2002C03D0022C0BD005D30EE02800E5
:100F800080B200F0C3FE09E0280080B200F0D9FE74
:100F900004E0280080B200F0EFFEFFE731BD000062
:100FA0000180BB450100804218070020F0B4B74C17
:100FB000C0B2282505FB00F52C44E48BB34DC0B22C
:100FC000282606FB00F63544AD8BA4B22D1B2A0063
:100FD000AE4DC0B2282606FB00F63544AD8BA4B258
:100FE00014FA85F56A431300A84DC0B2282606FB03
:100FF00000F635442D8BB2FBF5F25208A34DC0B27A
:10100000282606FB00F635446D8BB3FBF5F35B0831
:101010009D18A94230D29D4DC0B2282606FB00F68D
:1010200035446D8B994EC0B2282707FB00F73E442C
:10103000368B01FB05F715EB060CB7FBFCF73B0005
:10104000022B06D35F1E3A00002A04D101273A0082
:1010500001E000273A008D4FC0B25FF0280C0CFB76
:1010600000FC6744BA60894FC0B25FF0280C0CFBEB
:1010700000FC67443B610FE0844DC0B2282606FBAC
:1010800000F63544AA60CD1A6D1E804EC0B22827E6
:1010900007FB00F73E443561F0BC704701008A024F
:1010A00006D5C943491C8A02920A1000404200E05A
:1010B0000800704710B50400DFF8E80A006800284F
:1010C00006D0200080B2DFF8DC1A0968884700E00B
:1010D000FEE710BD80B5DFF8D00A006800280BD00D
:1010E0000120DFF8C81A0870DFF8BC0A00688047E2
:1010F0000020DFF8B81A087001BD2DE9F0410400A6
:101100000D00DFF8980A0078001B471E5FF000080A
:101110000020DFF89C1A08705FFA88F8B8F1000F19
:1011200003D000F055FD0020804600200600DFF8C7
:101130006C0A0078864206D20020DFF8781A314423
:101140004872761CF3E7DFF86C0AFFB23844457248
:1011500000F03CFD01208046DFF8540A00780028AA
:10116000D6D1DFF8541ADFF8540A00F0FFFC00F083
:101170002FFDBDE8F08138B504000D002888DFF8A8
:10118000201AE4B2282202FB04F211440883688882
:10119000DFF80C1AE4B2282202FB04F2114448835F
:1011A000A888DFF8FC19E4B2282202FB04F21144FB
:1011B0008883E888DFF8E819E4B2282202FB04F209
:1011C0001144C8830020DFF8D819E4B2282202FBBA
:1011D00004F288500020DFF8C819E4B2282202FB8C
:1011E00004F2114448600020DFF8B419E4B2282268
:1011F00002FB04F2114488600020DFF8A419E4B275
:10120000282202FB04F21144C8600020DFF8901984
:10121000E4B2282202FB04F2114408610020DFF846
:101220008019E4B2282202FB04F211444861002034
:10123000DFF86C19E4B2282202FB04F2114408849E
:101240000320DFF85C19E4B2282202FB04F2114407
:1012500081F822000120DFF84819E4B2282202FBBD
:1012600004F2114481F823000820DFF83419E4B2B5
:10127000282202FB04F2114481F8240029002000F6
:10128000C0B200F091F831BD340700207005002095
:1012900010B50400A020DFF80819E4B2282202FBF0
:1012A00004F211440883A020DFF8F418E4B22822E5
:1012B00002FB04F2114448834FF4C860DFF8E018E1
:1012C000E4B2282202FB04F2114488834FF44870F0
:1012D000DFF8CC18E4B2282202FB04F21144C883E0
:1012E0000020DFF8BC18E4B2282202FB04F2885088
:1012F0000020DFF8AC18E4B2282202FB04F211440B
:1013000048600020DFF89818E4B2282202FB04F2BB
:10131000114488600020DFF88818E4B2282202FB1C
:1013200004F21144C8600020DFF87418E4B22822E7
:1013300002FB04F2114408610020DFF86418E4B2F3
:10134000282202FB04F2114448610020DFF8501803
:10135000E4B2282202FB04F2114408840320DFF8DF
:101360004018E4B2282202FB04F2114481F8220062
:101370000120DFF82C18E4B2282202FB04F2114409
:1013800081F823000820DFF81818E4B2282202FBB5
:1013900004F2114481F824002000C0B200F062F889
:1013A00010BD00000000002038B504000D00002230
:1013B00001212000C0B2FFF722F800220221200004
:1013C000C0B2FFF71CF8002203212000C0B2FFF7D3
:1013D00016F895ED020A09212000C0B2FFF7B4FB10
:1013E000687D297D51EA00020E212000C0B2FFF77E
:1013F00006F895ED060A0F212000C0B2FFF7A4FB06
:1014000095ED070A10212000C0B2FFF79DFB95ED76
:10141000030A13212000C0B2FFF796FBA87CE97CE9
:1014200051EA000216212000C0B2FEF7E8FFAA6AC6
:1014300017212000C0B2FEF7E2FF95F82400697C76
:101440000843297C0843B5F9221089B20843B5F94D
:10145000201089B251EA000218212000C0B2FEF724
:10146000CEFF31BD10B50400002201212000C0B222
:10147000FEF7C5FF002202212000C0B2FEF7BFFF29
:10148000002203212000C0B2FEF7B9FFE4B2002C15
:1014900004D0022C00F08E8046D3D0E09FED8A0A63
:1014A00000F0A6FDC0B2020009212000C0B2FEF784
:1014B000A6FF35220E212000C0B2FEF7A0FFB0EE3D
:1014C000080A00F0BDFD0200D2B20F212000C0B218
:1014D000FEF795FFB3EE050A00F0B2FDC0B20200C0
:1014E00010212000C0B2FEF78AFF01221321200044
:1014F000C0B2FEF784FF8C2216212000C0B2FEF796
:101500007EFFCF2217212000C0B2FEF778FF4FF4F4
:10151000325218212000C0B2FEF771FF00212000D6
:10152000C0B2FFF7CDFC8AE09FED670A00F060FDD6
:10153000C0B2020009212000C0B2FEF760FF3522D0
:101540000E212000C0B2FEF75AFFB0EE080A00F0EC
:1015500077FDC0B202000F212000C0B2FEF74FFF9E
:10156000B3EE050A00F06CFDC0B2020010212000AD
:10157000C0B2FEF744FF012213212000C0B2FEF7E3
:101580003EFF8C2216212000C0B2FEF738FFCF228A
:1015900017212000C0B2FEF732FF4FF4325218215B
:1015A0002000C0B2FEF72BFF00212000C0B2FFF7E1
:1015B00087FC44E09FED440A00F01AFDC0B202002F
:1015C00009212000C0B2FEF71AFF35220E212000AB
:1015D000C0B2FEF714FFB0EE080A00F031FDC0B251
:1015E00002000F212000C0B2FEF709FFB3EE050A8A
:1015F00000F026FDC0B2020010212000C0B2FEF7AC
:10160000FEFE012213212000C0B2FEF7F8FE8C225C
:1016100016212000C0B2FEF7F2FECF2217212000D3
:10162000C0B2FEF7ECFE4FF4325218212000C0B2D7
:10163000FEF7E5FE00212000C0B2FFF741FC10BD1F
:1016400010B504002000C0B2FEF7AEFDDFF8500573
:10165000E4B2282101FB04F10844806800280AD084
:101660000020DFF83C15E4B2282202FB04F211440A
:1016700081F8240009E00220DFF82415E4B22822D2
:1016800002FB04F2114481F824000020DFF8101559
:10169000E4B2282202FB04F288500020DFF8001593
:1016A000E4B2282202FB04F21144C860DFF8F0041F
:1016B000E4B2282101FB04F10844C18B2000C0B230
:1016C000FFF73FFC10BD000000007A432DE9F8430E
:1016D00004000120DFF8D4140870DFF8C404E4B279
:1016E000282101FB04F10844C068401CDFF8B01455
:1016F000E4B2282202FB04F21144C860DFF8A0041F
:10170000E4B2282101FB04F1084490F824000028E9
:1017100006D0022800F05681032800F0DC8020E289
:10172000DFF87C04E4B2282101FB04F10844C56819
:10173000DFF86C04E4B2282101FB04F10844866858
:10174000DFF85C04E4B2282101FB04F10844078CB3
:10175000DFF84C04E4B2282101FB04F10844008BBB
:101760005FEA0048DFF83804E4B2282101FB04F105
:10177000084490F82200022814D0DFF82404E4B2D0
:10178000282101FB04F1084490F8220000281CD015
:10179000DFF80C04E4B2282101FB04F108440069DD
:1017A000854212D10220DFF8F813E4B2282202FBAE
:1017B00004F2114481F824000020DFF8E413E4B2BD
:1017C000282202FB04F2885084E03800DFF8D013AE
:1017D000E4B2282202FB04F21144898B80B28842D1
:1017E0000CD2DFF8BC03E4B2282101FB04F1084469
:1017F00090F8220000280CD0B5420AD10320DFF86F
:10180000A013E4B2282202FB04F2114481F8240060
:1018100060E05FF00009BFB2002F01D10120070096
:10182000DFF87C03E4B2282101FB04F14058BFB289
:10183000B8FBF7F10818DFF86813E4B2282202FBBE
:1018400004F28850DFF85803E4B2282101FB04F1C8
:101850004058B0F5803F13D3D148E4B2282101FBB2
:1018600004F1405800F17F4010F57F00CC49E4B20C
:10187000282202FB04F288507F1C01208146E1E708
:101880005FFA89F9B9F1000F24D0C548E4B22821E4
:1018900001FB04F10844808B390089B2884207D2E9
:1018A000BF48E4B2282101FB04F10844808B070003
:1018B000BB48E4B2282101FB04F108440784B8487E
:1018C000E4B2282101FB04F10844018C2000C0B2DD
:1018D000FFF737FB45E1B248E4B2282101FB04F1F0
:1018E0000844808BAE49E4B2282202FB04F2114482
:1018F000C968AB4AE4B2282303FB04F31A4492F804
:101900002220022A27D0A64AE4B2282303FB04F3AC
:101910001A4492F82220002A08D0A14AE4B22823CF
:1019200003FB04F31A441269914214D29C4AE4B2B4
:10193000282303FB04F31A4492F82220002A1BD127
:101940000200974BE4B2282505FB04F52B441B8CC1
:1019500092B29A4210D20222914BE4B2282505FBA2
:1019600004F52B4483F8242000228D4BE4B2282573
:1019700005FB04F55A5124E0894AE4B2282303FB0D
:1019800004F31A4492F82220002A1AD1844AE4B2BD
:10199000282303FB04F31A44128C03009BB29A42DF
:1019A0000FD200227E4BE4B2282505FB04F52B4420
:1019B00083F8242000227A4BE4B2282505FB04F5A5
:1019C0005A51CEE07648E4B2282101FB04F10844E4
:1019D000C5687348E4B2282101FB04F10844068C71
:1019E0006F48E4B2282101FB04F10844408B07044E
:1019F0006B48E4B2282101FB04F1084490F822006E
:101A000002280AD16648E4B2282101FB04F1084407
:101A1000C08B310089B2884212D26148E4B22821D9
:101A200001FB04F1084490F8220000280DD05C4826
:101A3000E4B2282101FB04F108444069854204D343
:101A40002000C0B2FEF709FF8AE05548E4B2282121
:101A500001FB04F1084490F82200002814D15048FA
:101A6000E4B2282101FB04F10844808B310089B2E3
:101A7000884209D303204A49E4B2282202FB04F237
:101A8000114481F824006BE04548E4B2282101FBB1
:101A900004F10844C08B310089B2884260D25FF003
:101AA0000008B6B2002E01D1012006003C48E4B285
:101AB000282101FB04F14058B6B2B7FBF6F1081833
:101AC0003749E4B2282202FB04F288503448E4B2D9
:101AD000282101FB04F14058B0F5803F16D330486F
:101AE000E4B2282101FB04F1405800F17F4010F5D9
:101AF0007F002B49E4B2282202FB04F28850B6B2E0
:101B0000022E00DB761E01208046DFE75FFA88F8B0
:101B1000B8F1000F24D030002149E4B2282202FBA2
:101B200004F21144C98B80B2884207D21C48E4B247
:101B3000282101FB04F10844C08B06001848E4B2D8
:101B4000282101FB04F1084406841548E4B2282149
:101B500001FB04F10844018C2000C0B2FFF7F1F949
:101B6000FFE7002011490870BDE8F18338B5040093
:101B70000D000A4802782900200000F0D6F900285C
:101B800003D048F20100FFF795FA084800780028D2
:101B900002D001200649087031BD00003A0700203C
:101BA0007005002028070020240700203C070020A3
:101BB0003B0700200C07002021070020150700200C
:101BC00010B50400200000F04BFA10BD72B670474B
:101BD00062B6704710B586B00400E4B2002C64D140
:101BE000DFF89C03006850F40020DFF894130860CD
:101BF000DFF88C03006810F4002000900098DFF8F4
:101C00008003006850F40030DFF874130860DFF8D8
:101C10007003006810F4003000900098DFF8600353
:101C2000006850F48020DFF858130860DFF8500394
:101C3000006810F48020009000984FF480600190BC
:101C4000D0480290012003900120049001A95FF088
:101C5000904000F015FA00220521282000F099FBA1
:101C6000282000F0A9FB40200190012002900020D4
:101C700003900120049001A9C34800F001FA012259
:101C80004021C14800F0E2FA4FF4007001900120B9
:101C90000290002003900120049001A95FF0904081
:101CA00000F0EEF9002000F0E6F8E4B2002C03D0DA
:101CB000022C1DD00FD327E04FF48070019001203B
:101CC0000290002003900120049001A95FF0904051
:101CD00000F0D6F918E020200190012002900020A9
:101CE00003900120049001A9A74800F0C9F90BE076
:101CF0001020019001200290002003900120049008
:101D000001A9A14800F0BCF906B010BD70B50400EF
:101D100001F04BF80500A4B24FF4806000FB04F022
:101D2000B5FBF0F0461E99480068C6629748C66049
:101D300070089649096888630421944801F0F7F80F
:101D400070BD70B5040001F030F80500A4B24FF486
:101D5000806000FB04F0B5FBF0F0461E8C48006884
:101D6000C6628B48C6607008894909688863042187
:101D7000874801F0DCF870BD70B5040001F015F87B
:101D80000500A4B24FF4006000FB04F0B5FBF0F0D6
:101D9000461E80480068C6627E48C66070087D495D
:101DA0000968486300217B4801F0C1F870BD70B537
:101DB0008AB00400E4B22000012808D002280ED026
:101DC0007248050074482860042006000DE0704841
:101DD00005005FF0804028600420060005E06D48A3
:101DE00005006E4828600020060040F2FF30686061
:101DF0000020A8600020E86000202861280001F091
:101E00002FF860200390002004900020059000200F
:101E10000790320003A9280001F00EFB002000907B
:101E2000002002906946280001F0B9FB0AB070BD9D
:101E300010B50400E4B2002C03D0022C0BD005D363
:101E40000EE00421514801F027F809E00421504830
:101E500001F022F804E000214E4801F01DF8FFE7F0
:101E600010BD10B5040001224FF400715FF09040E6
:101E700000F0ECF910BD10B5040000224FF4007121
:101E80005FF0904000F0E2F910BD38B504000D009D
:101E9000E4B2002C11D0022C01D007D315E02A00A7
:101EA000D2B21021384800F0D1F90EE02A00D2B2A7
:101EB0002021354800F0CAF907E02A00D2B24FF4D9
:101EC00080715FF0904000F0C1F931BD10B5344829
:101ED0003449086020203349C861002031498860B6
:101EE00001203049486102202E49086100202D4917
:101EF000886207202B49C8624FF4E0602949C86016
:101F00000020284908624FF40070264988610020AB
:101F1000244948624FF4827022494860214801F008
:101F2000D5FB04002000C0B210BD2DE9F04182B005
:101F300004000D00160000224021134800F086F92D
:101F400000208046F6B2B04511D24FF48050009088
:101F500001232A002100134801F01CFC0700FFB2F6
:101F6000002F04D1641C6D1C18F10108EAE701225E
:101F70004021054800F06AF93800C0B2BDE8F6819A
:101F80001410024000002110000400484C060020FC
:101F90008C060020CC0600200004004000440140D4
:101FA00000300140E8050020C0B2401C00EE100ADD
:101FB000B8EEC00ADFED020A20EE200A704700BF2B
:101FC0000000FA41C0B2401C00EE100AB8EEC00A90
:101FD000DFED020A20EE200A704700BF0080BB43FD
:101FE000C0B2401C00EE100ABAEEEF0A70470020A3
:101FF000DFED070A30EE200ADFED060AB6EE001A22
:1020000000EE201ABDEEC10A10EE100AC0B27047F1
:102010000000FAC16F12033DDFED070A30EE200A1F
:10202000DFED060AB6EE001A00EE201ABDEEC10A78
:1020300010EE100AC0B270470080BBC30FB82E3B31
:10204000FEEE000A30EE200AF0EE000AB6EE001AAC
:1020500000EE201ABDEEC10A10EE100AC0B27047A1
:1020600031B501F0BDFD0400009D15F1010F00D058
:102070006D1C01F0B5FD001BA842FAD331BD28004C
:1020800078B40022002300240D68D540002D00F014
:10209000CF800D680126964035402B00002B00F0C4
:1020A000C5804D68022D02D04D68122D16D1D5087D
:1020B00000EB85052D6A2C000F2512F00706F6B2FD
:1020C000B600B540AC430D6912F00706F6B2B60093
:1020D000B5402C43D50800EB85052C6205682C0023
:1020E00003251600F6B27600B540AC430D7915F025
:1020F00003051600F6B27600B5402C4304604D6827
:10210000012D08D04D68022D05D04D68112D02D04B
:102110004D68122D19D185682C0003251600F6B2E2
:102120007600B540AC43CD681600F6B27600B540F7
:102130002C43846045682C0001259540AC434D68D4
:10214000C5F3001595402C434460C5682C00032559
:102150001600F6B27600B540AC438D681600F6B2B4
:102160007600B5402C43C4604D68ED005ED5464D09
:102170002D6855F00105444E3560434D2D6815F02E
:1021800001050095009D414D960855F826502C00FC
:102190000F2512F00306F6B2B600B540AC43B0F11D
:1021A000904F01D100250FE0394DA84201D1012502
:1021B0000AE0384DA84201D1022505E0364DA8427B
:1021C00001D1032500E0052512F00306F6B2B600A2
:1021D000B5402C432D4D960845F826402F4D2D68CF
:1021E0002C009C434D68ED0300D51C432B4D2C6007
:1021F0002B4D2D682C009C434D68AD0300D51C432E
:10220000274D2C60274D2D682C009C434D68ED0216
:1022100000D51C43234D2C60234D2D682C009C437E
:102220004D68AD0200D51C431F4D2C60521C2BE79E
:1022300071BC70470200136989B20B4202D00123BE
:10224000180001E000231800C0B27047D2B2002A83
:1022500002D089B2816101E089B28162704742692E
:1022600089B24A404261704710B504000F480068C7
:10227000A4B2204206D0A4B20C480460200080B270
:1022800001F0D2FD10BD000018100240080001400E
:102290000004004800080048000C00480004014009
:1022A00004040140080401400C04014014040140EE
:1022B00010F00702474B1B6819004FF6FF03194047
:1022C000454B53EA02231943424B1960704741487A
:1022D0000068C0F30220704740B2002808D40121F2
:1022E00010F01F0291403D4A40B2430942F82310CA
:1022F000704710B440B2002804D40A01384B40B2F1
:102300001A5407E00A01374B40B210F00F0423447F
:1023100003F8042C10BC704770B4030013F00704DA
:10232000D4F10706052E01D3042001E0D4F1070003
:10233000261D072E01D2002500E0E51E012616FA13
:1023400000F0401E0840A8400121A940491E11404C
:10235000084370BC704710B50400601EB0F1807F68
:1023600001D301200EE0601E1F4908600F215FF0BD
:10237000FF30FFF7BEFF00201C49086007201C4902
:102380000860002010BD10B504002000FFF790FF8A
:1023900010BDF8B504000D0016000027FFF797FFE9
:1023A0000700320029003800FFF7B6FF01002000C7
:1023B00040B2FFF79EFFF1BD10B50400200040B20F
:1023C000FFF78AFF10BD10B504002000FFF7C3FF20
:1023D00010BD00000CED00E00000FA0500E100E097
:1023E00000E400E018ED00E014E000E018E000E098
:1023F00010E000E070B582B0040000252078C0072E
:1024000040F1EA80DFF81C0A006810F00C00042894
:102410000BD0DFF8100A006810F00C0008282ED14D
:10242000DFF8000A0068C00329D54FF48040B0FAF5
:1024300080F050F02000C0B24009C0B2012803D1A2
:10244000DFF8DC0900680AE04FF48040B0FA80F061
:102450004FF48040B0FA80F0DFF8D80900684FF4FC
:102460008041B1FA81F111F01F01C840C00740F16D
:10247000B3806068002840F0AF80012076E3606898
:10248000B0F5803F08D1DFF89809006850F480303B
:10249000DFF88C19086038E06068002810D1DFF898
:1024A0008009006830F48030DFF874190860DFF8C4
:1024B0007009006830F48020DFF86419086024E0B7
:1024C0006068B0F5A02F10D1DFF85409006850F40F
:1024D0008020DFF84C190860DFF84409006850F4E8
:1024E0008030DFF83C1908600FE0DFF8340900683D
:1024F00030F48030DFF828190860DFF8240900681C
:1025000030F48020DFF818190860DFF81C09006833
:1025100000090001A1680843DFF80C190860606831
:1025200000282CD001F05CFB05004FF48040B0FA8D
:1025300080F050F02000C0B24009C0B2012803D1A1
:10254000DFF8DC0800680AE04FF48040B0FA80F061
:102550004FF48040B0FA80F0DFF8D80800684FF4FC
:102560008041B1FA81F111F01F01C840C00733D496
:1025700001F036FB401B6528D7D30320F6E201F0BB
:102580002FFB05004FF48040B0FA80F050F020009F
:10259000C0B24009C0B2012803D1DFF88408006846
:1025A0000AE04FF48040B0FA80F04FF48040B0FA77
:1025B00080F0DFF8800800684FF48041B1FA81F1C3
:1025C00011F01F01C840C00706D501F009FB401BF0
:1025D0006528D7D30320C9E22078800740F1CD8059
:1025E000DFF84008006810F00C0F0BD0DFF834085B
:1025F000006810F00C0008283DD1DFF828080068BA
:10260000C00338D45FF08040B0FA80F050F0200072
:10261000C0B24009C0B2012803D1DFF80408006845
:102620000AE05FF08040B0FA80F05FF08040B0FADE
:1026300080F0DFF8000800685FF08041B1FA81F1B6
:1026400011F01F01C840C00704D52069012801D03E
:1026500001208BE2DFF8C80700685FF0F851B1FA9B
:1026600081F130F0F800626912FA01F10843DFF8F5
:10267000B017086081E02069002847D001205FF092
:102680000041B1FA81F1DFF8B02712EB8101086057
:1026900001F0A6FA05005FF08040B0FA80F050F03B
:1026A0002000C0B24009C0B2012803D1DFF8700792
:1026B00000680AE05FF08040B0FA80F05FF0804090
:1026C000B0FA80F0DFF86C0700685FF08041B1FA83
:1026D00081F111F01F01C840C00706D401F080FA53
:1026E000401B0328D7D3032040E2DFF834070068FB
:1026F0005FF0F851B1FA81F130F0F800626912FA36
:1027000001F10843DFF81817086036E000205FF099
:102710000041B1FA81F1DFF8202712EB8101086056
:1027200001F05EFA05005FF08040B0FA80F050F0F2
:102730002000C0B24009C0B2012803D1DFF8E00692
:1027400000680AE05FF08040B0FA80F05FF08040FF
:10275000B0FA80F0DFF8DC0600685FF08041B1FA83
:1027600081F111F01F01C840C00706D501F038FA09
:10277000401B0328D7D30320F8E1207800075AD55F
:10278000A06900282BD001205FF00041B1FA81F14F
:10279000DFF8A82612EB8101086001F021FA05009C
:1027A0005FF08040B0FA80F05FF08040B0FA80F0D7
:1027B0005FF08040B0FA80F0DFF8780600685FF0E4
:1027C0008041B1FA81F111F01F01C840C00732D435
:1027D00001F006FA401B0328E2D30320C6E10020E3
:1027E0005FF00041B1FA81F1DFF8502612EB810170
:1027F000086001F0F5F905005FF08040B0FA80F064
:102800005FF08040B0FA80F05FF08040B0FA80F076
:10281000DFF8200600685FF08041B1FA81F111F025
:102820001F01C840C00706D501F0DAF9401B032894
:10283000E2D303209AE12078400740F1E3800026AC
:10284000DFF8FC050068C00010D4DFF8F40500686C
:1028500050F08050DFF8E8150860DFF8E405006804
:1028600010F080500090009801200600DFF8D40599
:102870000068C00516D4DFF8CC05006850F48070FD
:10288000DFF8C015086001F0ABF90500DFF8B4050A
:102890000068C00506D401F0A3F9401B6528F5D3F4
:1028A000032063E1E068012808D1DFF89C05006897
:1028B00050F00100DFF89015086037E0E06800286C
:1028C00010D1DFF88405006840084000DFF8781573
:1028D0000860DFF87405006830F00400DFF8681560
:1028E000086023E0E068052810D1DFF85C05006887
:1028F00050F00400DFF850150860DFF84C05006860
:1029000050F00100DFF8401508600FE0DFF83805EF
:10291000006840084000DFF830150860DFF828053F
:10292000006830F00400DFF820150860E068002837
:102930002ED001F055F905005FF08040B0FA80F02C
:102940005FF08040B0FA80F050F04000C0B2400923
:10295000C0B2022803D1DFF8F004006806E05FF09F
:102960008040B0FA80F0DFF8CC0400685FF080416E
:10297000B1FA81F111F01F01C840C00737D401F04E
:102980002FF9401B41F289318842D5D30320EDE075
:1029900001F026F905005FF08040B0FA80F05FF0AA
:1029A0008040B0FA80F050F04000C0B24009C0B2A0
:1029B000022803D1DFF89004006806E05FF0804051
:1029C000B0FA80F0DFF86C0400685FF08041B1FA83
:1029D00081F111F01F01C840C00708D501F000F9CE
:1029E000401B41F289318842D5D30320BEE0F6B2C4
:1029F000012E07D1DFF84804006830F08050DFF87E
:102A000040140860E069002800F0AF80DFF814048B
:102A1000006810F00C00082800F0A580E06902288A
:102A20006FD100208021B1FA81F1DFF80C2412EB84
:102A30008101086001F0D4F805004020B0FA80F070
:102A400050F02000C0B24009C0B2012803D1DFF825
:102A5000D003006808E04020B0FA80F04020B0FACF
:102A600080F0DFF8D00300684021B1FA81F111F065
:102A70001F01C840C00706D501F0B2F8401B03286B
:102A8000DBD3032072E0DFF89C03006830F474109D
:102A9000616A0843216A0843DFF88813086001204F
:102AA0008021B1FA81F1DFF8902312EB81010860F7
:102AB00001F096F805004020B0FA80F050F02000B8
:102AC000C0B24009C0B2012803D1DFF85403006846
:102AD00008E04020B0FA80F04020B0FA80F0DFF843
:102AE000540300684021B1FA81F111F01F01C84080
:102AF000C0073AD401F074F8401B0328DBD303204D
:102B000034E000208021B1FA81F1DFF82C2312EBB0
:102B10008101086001F064F805004020B0FA80F0FF
:102B200050F02000C0B24009C0B2012803D1DFF844
:102B3000F002006808E04020B0FA80F04020B0FACF
:102B400080F0DFF8F00200684021B1FA81F111F065
:102B50001F01C840C00708D501F042F8401B0328F8
:102B6000DBD3032002E0012000E0002076BD70B539
:102B700004000D000026DFF8D402006810F0070002
:102B8000A84211D2DFF8C4020068C008C000284380
:102B9000DFF8B8120860DFF8B402006810F0070030
:102BA000A84201D00120FFE02078800709D5DFF896
:102BB0007402006830F0F000A1680843DFF8641286
:102BC00008602078C00740F1AF806068012824D1F8
:102BD0004FF48040B0FA80F050F02000C0B24009BD
:102BE000C0B2012803D1DFF8380200680AE04FF4D0
:102BF0008040B0FA80F04FF48040B0FA80F0DFF807
:102C0000340200684FF48041B1FA81F111F01F01E4
:102C1000C840C0074AD40120C6E06068022820D11D
:102C20004020B0FA80F050F02000C0B24009C0B29D
:102C3000012803D1DFF8E801006808E04020B0FA7D
:102C400080F04020B0FA80F0DFF8E8010068402111
:102C5000B1FA81F111F01F01C840C00726D401204C
:102C6000A2E05FF08040B0FA80F050F02000C0B2E7
:102C70004009C0B2012803D1DFF8A40100680AE0CE
:102C80005FF08040B0FA80F05FF08040B0FA80F0F2
:102C9000DFF8A00100685FF08041B1FA81F111F026
:102CA0001F01C840C00701D401207DE0DFF8740196
:102CB000006880088000616808435A49086000F095
:102CC0008FFF0600606801280ED15648006810F09A
:102CD0000C00042828D000F083FF801B41F28931CA
:102CE0008842F2D303205FE0606802280ED14D488D
:102CF000006810F00C00082816D000F071FF801B4F
:102D000041F289318842F2D303204DE04548006802
:102D100010F00C0F08D000F063FF801B41F28931E6
:102D20008842F3D303203FE04848006810F00700D2
:102D300085420ED245480068C008C0002843434978
:102D400008604248006810F00700A84201D0012046
:102D50002AE02078400707D53248006830F4E06068
:102D6000E16808432F4908602078000708D52D48FE
:102D7000006830F46050216950EAC10029490860B8
:102D800000F013F827490968314A11F0F0015FF0AB
:102D90007063B3FA83F3D940515CC840244908609A
:102DA0000F2001F051F8002070BDF0B40021002286
:102DB0000023002400201B4D2D68290011F00C0574
:102DC000042D02D0082D03D026E0184D280025E060
:102DD000204D11F470164FF47057B7FA87F7FE4084
:102DE000AD5D2C00104D2D681B4E15F00F055FF0EA
:102DF0007047B7FA87F7FD40755D2A00CD0305D50A
:102E00000A4DB5FBF2F565432B0003E0134D05FBBE
:102E100004F52B00180001E0044D2800F0BC7047B9
:102E200000100240041002402C10024000127A00F0
:102E30006801002024100240000042428004424207
:102E40001C10024000700040201002400020024090
:102E500064470008444700085447000800093D0043
:102E600010B50400002C01D1012014E094F83D00BD
:102E7000002805D1002084F83C00200000F010FF5D
:102E8000022084F83D00211D206800F077F9012020
:102E900084F83D00002010BD38B504000D0000226C
:102EA0002900206800F0B8FA2068DFF82C11884269
:102EB0000ED02068DFF82411884209D02068DFF89E
:102EC0002011884204D02068DFF81811884201D10F
:102ED000012000E00020C0B2002811D02068006A64
:102EE00041F2111108420BD12068006A40F24441BE
:102EF000084205D12068406C30F4004021684864E5
:102F00002068006A41F2111108420BD12068006A62
:102F100040F24441084205D1206800684008400062
:102F200021680860012084F83D00002032BD38B5DA
:102F300004000D002800002806D004280BD0082823
:102F400010D00C2815D01BE02068C06850F002009B
:102F50002168C86014E02068C06850F0040021684F
:102F6000C8600DE02068C06850F008002168C860A3
:102F700006E02068C06850F010002168C860FFE7D4
:102F800001222900206800F047FA2068DFF8481085
:102F900088420DD02068DFF84410884208D02068AD
:102FA0000F49884204D02068DFF83810884201D1E8
:102FB000012000E00020C0B2002805D02068406C4D
:102FC00050F40040216848642068006850F0010017
:102FD00021680860002032BD002C01400040014003
:102FE000004401400048014010B504002068006919
:102FF00080071AD52068C068800716D57FF00200C8
:1030000021680861012020772068806910F0030F93
:1030100003D0200000F02CFF05E0200000F029FF85
:10302000200000F0B5FE00202077206800694007EE
:103030001AD52068C068400716D57FF004002168C3
:103040000861022020772068806910F4407F03D057
:10305000200000F00DFF05E0200000F00AFF200036
:1030600000F096FE002020772068006900071AD53E
:103070002068C068000716D57FF008002168086145
:10308000042020772068C06910F0030F03D02000CF
:1030900000F0EEFE05E0200000F0EBFE200000F066
:1030A00077FE0020207720680069C0061AD52068C6
:1030B000C068C00616D57FF010002168086108209E
:1030C00020772068C06910F4407F03D0200000F012
:1030D000CFFE05E0200000F0CCFE200000F058FEFE
:1030E0000020207720680069C0070AD52068C068E2
:1030F000C00706D57FF0010021680861200000F0BC
:10310000B9FE2068006900060AD52068C06800067C
:1031100006D57FF0800021680861200000F0ABFE3A
:1031200020680069C0050AD52068C068000606D579
:103130007FF4807021680861200000F09DFE206807
:10314000006940060AD52068C068400606D57FF0B1
:10315000400021680861200000F08FFE20680069AF
:1031600080060AD52068C068800606D57FF020005A
:1031700021680861200000F081FE10BD0022036874
:103180001A00DFF87832984206D0B0F1804F03D0B1
:10319000DFF86C32984203D132F070024B681A4368
:1031A000DFF85832984212D0B0F1804F0FD0DFF8DC
:1031B000503298420BD0DFF84C32984207D0DFF8FB
:1031C0004832984203D0DFF84432984203D132F4B7
:1031D0004072CB681A4332F080024B691A43026096
:1031E0008B68C3620B688362844B984208D0854B1E
:1031F000984205D0844B984202D0844B984201D12A
:103200000B690363012343617047000030B400235E
:1032100000240022056A6D086D000562056A2C0015
:1032200045682A0085692B00794D2B409B089B003F
:103230000D682B4334F002048D682C436F4DA84277
:1032400008D0704DA84205D06F4DA84202D06F4DF6
:10325000A84205D134F00804CD682C4334F00404AE
:10326000664DA84208D0674DA84205D0664DA842D9
:1032700002D0664DA84207D132F4807232F4007257
:103280004D692A438D692A43426083614D684563D5
:10329000046230BC704730B4002300240022056A69
:1032A00035F010050562056A2C0045682A0085691D
:1032B0002B00584D2B4033F440730D6853EA05231F
:1032C00034F020048D6854EA05144C4DA84206D110
:1032D00034F08004CD6854EA051434F04004474DBE
:1032E000A84208D0474DA84205D0474DA84202D079
:1032F000464DA84209D132F4806232F400624D6931
:1033000052EA85028D6952EA8502426083614D6806
:103310008563046230BC704730B40023002400226F
:10332000056A35F480750562056A2C0045682A0037
:10333000C5692B00364D2B409B089B000D682B4325
:1033400034F400748D6854EA05242C4DA84206D14B
:1033500034F40064CD6854EA052434F48064274DC5
:10336000A84208D0274DA84205D0274DA84202D038
:10337000264DA84209D132F4805232F400524D69F0
:1033800052EA05128D6952EA05124260C3614D6826
:10339000C563046230BC704730B4002300240022AF
:1033A000056A35F480550562056A2C0045682A00D7
:1033B000C5692B00174D2B4033F440730D6853EA59
:1033C000052334F400548D6854EA05340B4DA842AB
:1033D00008D00C4DA84205D00B4DA84202D00B4D91
:1033E000A84204D132F480424D6952EA851242600B
:1033F000C3614D680564046230BC7047002C014015
:1034000000040040004001400044014000480140E9
:103410008FFFFEFFFF8FFFFE30B4002301248C409E
:103420002300046A9C430462046A12FA01F52C43E7
:10343000046230BC7047000070B504000D00160037
:1034400094F83C00012801D10220A7E0012084F873
:103450003C00022084F83D00300000280AD00428F7
:103460001FD0082835D00C284AD0102860D0142846
:1034700075D08CE029002068FFF7C8FE20688069BD
:1034800050F00800216888612068806930F00400ED
:1034900021688861206880692969084321688861FA
:1034A00075E029002068FFF7F6FE2068806950F477
:1034B0000060216888612068806930F4806021683C
:1034C000886120688069296950EA01202168886143
:1034D0005DE029002068FFF71FFF2068C06950F0F9
:1034E00008002168C8612068C06930F004002168C4
:1034F000C8612068C069296908432168C86146E03D
:1035000029002068FFF748FF2068C06950F4006078
:103510002168C8612068C06930F480602168C86192
:103520002068C069296950EA01202168C8612EE03D
:103530002900206800F05FF82068406D50F0080016
:10354000216848652068406D30F0040021684865B6
:103550002068406D296908432168486517E0290003
:10356000206800F077F82068406D50F40060216812
:1035700048652068406D30F48060216848652068A7
:10358000406D296950EA012021684865FFE7012064
:1035900084F83D00002084F83C00002070BD30B469
:1035A000020092F83C00012801D1022021E0012014
:1035B00082F83C00106840680400106880680300CE
:1035C0001068DFF8F050A84203D134F47004486862
:1035D000044334F070040868044333F080038868BF
:1035E00003431068446010688360002082F83C0048
:1035F000002030BC704730B4002300240022056A4C
:1036000035F480350562056A2C0045682A00456D51
:103610002B00294D2B400D682B4334F400348D686A
:1036200054EA0544234DA84208D0244DA84205D0B1
:10363000234DA84202D0234DA84204D132F4803257
:103640004D6952EA0522426043654D688565046212
:1036500030BC704730B4002300240022056A35F4E2
:1036600080150562056A2C0045682A00456D2B000F
:10367000154D2B400D6853EA052334F400148D6872
:1036800054EA05540B4DA84208D00C4DA84205D071
:103690000B4DA84202D00B4DA84204D132F4802237
:1036A0004D6952EA8522426043654D68C5650462F2
:1036B00030BC7047002C01408FFFFEFF00400140EE
:1036C0000044014000480140FF8FFFFE38B5040070
:1036D000002C01D101205CE0606A00280020A0627B
:1036E00094F85D00002805D1002084F85C002000DB
:1036F00000F07CFA022084F85D002068006830F059
:10370000400021680860E068B0F5E06F02D9002051
:10371000050002E04FF480500500E068B0F5706FDE
:1037200005D0E068B0F5E06F01D00020A062206B0A
:10373000002808D1E068B0F5E06F02D902202063CC
:1037400001E0012020636068A16808432169084303
:1037500061690843A16911F400710843E1690843F4
:10376000216A0843A16A084321680860A069000C27
:1037700010F00400616A0843616B0843E168084384
:1037800028432168486000202066012084F85D00FD
:10379000002032BD2DE9F04F83B004000D0016006B
:1037A0001F00DDF8308000200090002001905FF0C5
:1037B00000095FF0010A5FF0000B94F85C0001283B
:1037C00001D102202DE1012084F85C0000F008FA0C
:1037D000814694F85D00009060680190009801288F
:1037E0000CD00198B0F5827F05D1A068002802D1E5
:1037F0000098042802D0022083460AE1002D04D05C
:10380000002E02D0BFB2002F02D10120834600E17A
:1038100094F85D00042802D0052084F85D000020A3
:1038200020662664A4F84670A4F84470A563E78770
:10383000A7870020E06400202065E068B0F5E06F15
:1038400003D8B4F84600022806D32068406830F454
:1038500080502168486005E02068406850F480503E
:103860002168486020680068400605D42068006828
:1038700050F0400021680860E068B0F5E06F46D97C
:103880006068002802D0E08F012806D128882168CE
:10389000C860AD1CE08F401EE087E08F002804D197
:1038A000B4F84600002800F0A680BAF1000F0FD04F
:1038B000E08F00280CD020688068800708D5288811
:1038C0002168C860AD1CE08F401EE0870020824662
:1038D000B4F8460000280ED020688068C0070AD5DA
:1038E0002068C0683080B61CB4F84600401EA4F8BA
:1038F00046000120824618F1010FCED000F070F989
:10390000B0EB09004045C8D30320834681E06068DE
:10391000002802D0E08F012811D1E08F022807D3C0
:1039200028882168C860AD1CE08F801EE08706E013
:103930002878216808736D1CE08F401EE087E08FB7
:10394000002803D1B4F84600002854D0BAF1000F83
:103950001AD0E08F002817D020688068800713D520
:10396000E08F022807D328882168C860AD1CE08F4B
:10397000801EE08706E02878216808736D1CE08FC0
:10398000401EE08700208246B4F84600002826D07A
:1039900020688068C00722D5B4F84600022813D3F7
:1039A0002068C0683080B61CB4F84600801EA4F8B9
:1039B0004600B4F8460002280FD22068406850F450
:1039C00080502168486008E02068007B3070761CD9
:1039D000B4F84600401EA4F846000120824618F1C3
:1039E000010FACD000F0FCF8B0EB09004045A6D3C5
:1039F000032083460DE04A464146200000F0BAF815
:103A0000002801D020202066206E002801D001204F
:103A10008346012084F85D00002084F85C0058464D
:103A2000C0B2BDE8FE8F2DE9F04104000D00160084
:103A30001F00DDF81880206880682840A84201D166
:103A4000012000E00020B0423AD017F1010FF2D07F
:103A5000002F05D000F0C4F8B0EB0800B842EAD35C
:103A60002068406830F0E000216848606068B0F588
:103A7000827F0DD1A068B0F5004F03D0A068B0F5EB
:103A8000806F05D12068006830F040002168086030
:103A9000A06AB0F5005F0BD12068006830F40050D8
:103AA000216808602068006850F4005021680860B0
:103AB000012084F85D00002084F85C00032000E011
:103AC0000020BDE8F0812DE9F04182B004000D0036
:103AD00016001F00DDF82080206880682840B04272
:103AE00045D0B5F5C06F07D1002E05D12068007B09
:103AF0008DF800009DF8000017F1010FECD0002FA9
:103B000005D000F06DF8B0EB0800B842E4D32068AF
:103B1000406830F0E000216848606068B0F5827F5E
:103B20000DD1A068B0F5004F03D0A068B0F5806F4C
:103B300005D12068006830F0400021680860A06A64
:103B4000B0F5005F0BD12068006830F400502168A8
:103B500008602068006850F4005021680860012067
:103B600084F85D00002084F85C00032000E0002061
:103B7000BDE8F68170B582B004000D001600009615
:103B80002B0000224FF4C0512000FFF79CFF0028BB
:103B900005D0206E50F02000206603201FE0009624
:103BA0002B00002280212000FFF73DFF002805D0D8
:103BB000206E50F020002066032010E000962B00BD
:103BC00000224FF4C0612000FFF77DFF002805D0E0
:103BD000206E50F020002066032000E0002076BD1B
:103BE00001480068704700BF2C07002010B586B060
:103BF000040020688449884250D18448006850F409
:103C00000030824908608148006810F4003000905C
:103C100000987E48006850F400307C4908607B487A
:103C2000006810F40030009000987848006850F464
:103C30000030764908607548006810F40030009044
:103C400000987348006850F48050714908607048CB
:103C5000006810F48050009000982020019002200D
:103C6000029000200390012004900520059001A9F6
:103C70005FF09040FEF704FA402001900520059087
:103C800001A95FF09040FEF7FBF98020019005202C
:103C9000059001A95FF09040FEF7F2F906B010BD63
:103CA00010B586B0040020685A49884222D15A488B
:103CB000006850F00200584908605748006810F04A
:103CC00002000090009880200190022002900020C5
:103CD0000390002004900220059001A94F48FEF7B0
:103CE000CFF9002204211D20FEF753FB1D20FEF713
:103CF00063FB4BE02068B0F1804F22D1464800685A
:103D000050F00100444908604348006810F0010089
:103D1000009000980820019002200290002003905B
:103D2000002004900120059001A93D48FEF7A8F964
:103D3000002204211C20FEF72CFB1C20FEF73CFB7C
:103D400024E020683749884220D13148006850F487
:103D500000302F4908602E48006810F400300090B1
:103D600000984FF4806001900120029000200390A1
:103D70000020049001A92A48FEF782F900220321BD
:103D80001920FEF706FB1920FEF716FB06B010BD42
:103D900010B5040020681F4988420AD1207F0228FC
:103DA00007D1002000F0CFF8082802D0002000F052
:103DB00049F92068B0F1804F0AD1207F022807D14D
:103DC000012000F0C0F8082802D0012000F03AF9E4
:103DD00020681449884216D1207F012813D14FF45E
:103DE00080610F48FEF73BFA022000F0ACF808288B
:103DF00009D04FF480610A48FEF71CFA012802D16D
:103E0000022000F01FF910BD0030014014100240E4
:103E100018100240000400401C1002400008004836
:103E2000000400480044014010B50400A4B2B4F5F9
:103E3000806F01D100F070F8A4B2B4F5005F01D139
:103E400000F072FA10BD000010B5040007480068C9
:103E50004FF47A71B0FBF1F0FEF7B5FA00222100C1
:103E60005FF0FF30FEF795FA002010BD68010020DA
:103E70007047704770477047704770477047000041
:103E800010B50400DFF85C03006800280CD0DFF8F0
:103E9000540300688068002806D02000DFF844132F
:103EA00009688968884703E040F6020000F001F8DD
:103EB00010BD10B50400DFF82C03006800280FD0F7
:103EC000DFF820030068D0F8F000002808D02000B8
:103ED00080B2DFF810130968D1F8F010884700E0CD
:103EE000FEE710BD38B504000D00DFF8F8020068E9
:103EF00000280CD0DFF8EC0200680068002806D02B
:103F00002800DFF8E01209680968884703E04FF4E9
:103F10000060FFF7CEFF31BD80B5DFF8C802006852
:103F200000280BD0DFF8BC0200684069002805D0EB
:103F3000DFF8B00200684069804703E040F6050002
:103F4000FFF7B7FF01BD38B504000825DFF894027C
:103F5000006800280ED0DFF88C020068406A002854
:103F600008D02000C0B2DFF87C120968496A88478F
:103F7000050003E040F60900FFF79BFF2800C0B2F0
:103F800032BD70B504000D001600DFF8580200685D
:103F9000002810D0DFF84C020068C06C00280AD05E
:103FA00032002900C9B22000C0B2DFF838321B68E5
:103FB000DB6C984703E040F61300FFF77AFF70BD13
:103FC00070B504000D000026DFF818020068002814
:103FD00010D0DFF810020068806E00280AD0290097
:103FE00089B22000C0B2DFF8FC211268926E9047BF
:103FF000060003E040F61A00FFF75BFF3000C0B296
:1040000070BD70B504000D000026DFF8D80100680F
:10401000002810D0DFF8CC010068C06E00280AD05C
:10402000290089B22000C0B2DFF8B8211268D26E30
:104030009047060003E040F61B00FFF73AFF300010
:10404000C0B270BD10B50400DFF898010068002808
:104050000DD0DFF890010068406F002807D02000E5
:10406000C0B2DFF880110968496F884703E040F665
:104070001D00FFF71EFF10BD10B50400DFF864013E
:10408000006800280DD0DFF85C010068806F002810
:1040900007D02000C0B2DFF84C110968896F88474B
:1040A00003E040F61E00FFF704FF10BD70B50400EA
:1040B0000D000026DFF82C010068002811D0DFF881
:1040C00024010068D0F8840000280AD029002000CC
:1040D000C0B2DFF810211268D2F8842090470600A1
:1040E00003E040F62100FFF7E4FE300070BD38B574
:1040F00004000025DFF8EC000068002810D0DFF88D
:10410000E4000068D0F88800002809D02000C0B280
:10411000DFF8D0100968D1F888108847050003E05F
:1041200040F62200FFF7C5FE280080B232BD10B570
:104130000400DFF8B000006800280FD0DFF8A4000A
:104140000068D0F89800002808D02000C0B2DFF83E
:1041500094100968D1F89810884703E040F62600CB
:10416000FFF7A7FE10BD10B50400DFF87800006867
:1041700000280FD0DFF86C000068D0F89C00002801
:1041800008D02000C0B2DFF85C100968D1F89C109C
:10419000884703E040F62700FFF78BFE10BD70B59F
:1041A00004000D000026DFF83C000068002812D053
:1041B000DFF830000068D0F8A00000280BD02900FC
:1041C000C9B22000C0B2DFF81C201268D2F8A020CB
:1041D0009047060003E040F62800FFF76AFE300033
:1041E000C0B270BD3007002070B504000D003B4820
:1041F00004800026A4B241F64A10844204D1FCF7A0
:104200004FFA354908604EE0A4B2012C04D100F009
:10421000B9F83149086046E0A4B241F63E00844254
:1042200004D100F0B1F82C4908603CE0A4B2B4F528
:10423000C25F04D100F0AAF82749086033E0A4B2B5
:10424000DC2C04D100F0A4F8234908602BE0A4B2D0
:1042500041F64610844204D0A4B241F6481084428C
:1042600004D100F097F81C4908601CE0A4B241F6A4
:104270005010844204D0A4B241F65210844204D1BA
:1042800000F08AF8144908600DE0A4B2F02C02D0C6
:10429000A4B2FA2C04D100F081F80F49086002E0C2
:1042A00000200D4908600C480068002810D00A481A
:1042B0000068D0F8440100280AD0EDB2002D07D0E4
:1042C0002800C0B204490968D1F8441188470600A3
:1042D0003000C0B270BD0000300700203807002059
:1042E00080B500F05DF800F070F8012141F64A1049
:1042F000FFF77AFF002141F64A10FFF7F3FD0FF2B6
:104300001D00FFF7BDFD002200215FF0FF30FEF72A
:1043100040F80121002000F081F8FEE70149088003
:10432000FEE700003607002010B500240020FFF74C
:104330001AFF0120FDF794FE0020FFF7F8FE012090
:10434000FDF78EFE0020FFF7D2FE040009210020B9
:10435000FFF7ACFE0400292CE8D100210020FFF774
:104360001EFF08210020FFF74CFE08210020FFF768
:1043700027FE082201210020FFF703FE0020FFF79F
:104380007BFE10BD00207047002070470020704762
:1043900000207047002070470020704700207047C1
:1043A00080B50848006850F01000064908600320F6
:1043B000FDF7E9FF0F20FFF747FD00F005F80020AB
:1043C00002BD000000200240704700B58FB0002001
:1043D000059002200C9000200D905FF460100E906C
:1043E00005A8FEF707F8002802D00020FFF796FF87
:1043F0000F20009002200190002002904FF4806076
:1044000003900020049002216846FEF7B0FB0028CC
:1044100002D00120FFF782FF0FB000BD30B587B09A
:1044200004000D00E4B2002C0ED1DFF89C000068FF
:1044300050F40020DFF890100860DFF88C0000686E
:1044400010F4002000900098EDB2002D13D1DFF899
:104450007C00E4B230F814000190002002900220A9
:1044600003900320049001A9DFF86400E4B250F83F
:104470002400FDF705FEEDB2012D22D1DFF84C003E
:10448000E4B230F81400019000200390DFF84400FB
:10449000029001A9DFF83800E4B250F82400FDF7DB
:1044A000EFFD00220F21DFF83000E4B2005740B2E8
:1044B000FDF76FFFDFF82000E4B2005740B2FDF7D0
:1044C0007BFF07B030BD000014100240EE1F000853
:1044D00064010020000011107E2000081B480068C5
:1044E00050F47000194908601948006850F0010044
:1044F00017490860174800681749084015490860BF
:1045000013480068154908401149086010480068C0
:1045100030F480200E4908600E48006830F4FE0038
:104520000C4908600E480068000900010C49086049
:104530000C4800680C4908400A49086000200B49F3
:1045400008605FF000600A490860704788ED00E08D
:1045500000100240041002400CC07FF8FFFFF6FE7E
:104560002C10024030100240CCFC00FF081002402A
:1045700008ED00E0F0B4016844688368014401EB91
:104580005402E40748BF4B44914202D1F0BC0C30C6
:10459000704711F8015B15F0030604BF11F8014BD9
:1045A000E61C2C090F2C07D111F8014B0F3403E046
:1045B00011F8017B03F8017B761EF9D1002CE3D0C2
:1045C000AD0811F8016B05F00305032D08BF11F8C4
:1045D000015B06EB05256D42A41C1D44D4D015F8E3
:1045E000016B03F8016B641EF9D1CDE77047FEE75C
:1045F000FEE7FEE7FEE770477047704780B500F0C2
:1046000021F801BD80B54FF48060FDF72DFE4FF419
:104610000050FDF729FE01BD80B50748FEF7E4FC18
:1046200001BD80B50548FEF7DFFC01BD80B504483B
:10463000FEF7DAFC01BD00008C0600204C060020CD
:10464000CC06002002480068401C01490860704701
:104650002C07002019E050F8041BCB0744BFA9F138
:1046600001035918121F0023042A41F8043BF9D210
:104670005FEA827C0B4604D54FF0000CA1F800C025
:104680009B1CD10744BF0021197050F8042B002A4D
:10469000E1D1704710B5074979441831064C7C4484
:1046A000163404E00A68081D114488470146A142F7
:1046B000F8D110BD2C000000480000004EF68851D3
:1046C000CEF20001086840F470000860BFF34F8F1D
:1046D000BFF36F8F4FF00070E1EE100A70470000DB
:1046E00075FFFFFFD00100007005002000000000F2
:1046F00085FEFFFF5401000096010000000000202D
:1047000000F00BF8002801D0FFF7C4FF0020AFF342
:104710000080FFF7E5FD00F002F80120704700F08F
:1047200001B800000746384600F002F8FBE7000039
:1047300080B5AFF30080024A11001820ABBEFBE742
:104740002600020002030405060708090A0B0C0DE7
:104750000E0F10100102030405060708090A0B0CCE
:104760000D0E0F1000000000000000000102030405
:10477000060708090148804701480047DD44000852
:1047800085470008AFF30080FFF798FFFFF7B8FFF9
:10479000FFF7FEBFFFF7FEBFFFF7FEBFFFF7FEBF4D
:1047A000FFF7FEBFFFF7FEBFFFF7FEBFFFF7FEBF3D
:1047B000FFF7FEBFFFF7FEBFFFF7FEBFFFF7FEBF2D
:1047C000FFF7FEBFFFF7FEBFFFF7FEBFFFF7FEBF1D
:1047D000FFF7FEBFFFF7FEBFFFF7FEBFFFF7FEBF0D
:1047E000FFF7FEBFFFF7FEBFFFF7FEBFFFF7FEBFFD
:1047F000FFF7FEBFFFF7FEBFFFF7FEBFFFF7FEBFED
:10480000FFF7FEBFFFF7FEBFFFF7FEBFFFF7FEBFDC
:10481000FFF7FEBFFFF7FEBFFFF7FEBFFFF7FEBFCC
:10482000FFF7FEBFFFF7FEBFFFF7FEBFFFF7FEBFBC
:10483000FFF7FEBFFFF7FEBFFFF7FEBFFFF7FEBFAC
:10484000FFF7FEBFFFF7FEBF100B35050008C709D5
:1048500000088901000891041200011003D510001E
:1048600008BB181003570600086704127704129B50
:104870000412A70412BB0412CB0412E30410035F5A
:104880000700086F04128F0410035B0800083B4800
:1048900012FD0410033B0A0008F7041007C10C00C6
:1048A000084F0D0008A90412D5041003490E000892
:1048B000DD041007CD160008310F0008997012A909
:1048C0000412B904100315030008EF0412FF0412C8
:1048D000CF4412E10422EF98114843130D98A1012F
:1048E000F301D70814E101F301DB0624F30DB51041
:1048F0003812C1A0834D072412F744F30D89063402
:10490000228BDC160B18F20605280005080048006B
:03491000127A0018
:040000050800478523
:00000001FF
